:020000040800F2
:1000000000000220AD2300083D2100084521000822
:10001000632100086B210008732100080000000024
:100020000000000000000000000000007B2100082C
:10003000892100080000000097210008A521000880
:10004000FD230008FD230008FD230008FD23000810
:10005000FD230008FD230008FD230008FD23000800
:10006000FD230008FD230008FD230008B52100083A
:10007000FD230008FD230008C9210008FD23000816
:10008000FD230008DD210008FD230008FD230008F2
:10009000FD230008FD230008FD230008FD230008C0
:1000A000FD230008FD230008FD230008FD230008B0
:1000B000F1210008FD230008FD230008FD230008AE
:1000C000FD230008FD230008FD230008FD23000890
:1000D000FD230008FD230008FD230008FD23000880
:1000E000FD230008FD230008FD230008FD23000870
:1000F000FD230008FD230008FD230008FD23000860
:10010000FD230008FD230008FD230008FD2300084F
:10011000FD230008FD230008FD230008FD2300083F
:1001200005220008FD230008FD230008FD23000828
:10013000FD2300080000000000000000FD2300086F
:10014000FD230008FD230008FD230008FD2300080F
:10015000FD230008FD230008FD230008FD230008FF
:10016000FD230008FD230008FD230008FD230008EF
:10017000FD230008FD230008FD2300080000000007
:1001800000000000FD230008000000000000000047
:10019000FD2300080000000000000000FD2300080F
:1001A000000000000000000000000000FD23000827
:1001B000FD230008FD230008FD230008FD2300089F
:0401C000FD23000813
:1001D00010B5054C237833B9044B13B10448AFF381
:1001E00000800123237010BD68040020000000007F
:1001F0002C6F000808B5034B1BB103490348AFF34C
:10020000008008BD000000006C0400202C6F000876
:1002100001F0FF01102A2BDB10F0070F08D010F8B7
:10022000013B013A8B422DD010F0070F42B3F6D1BB
:10023000F0B441EA012141EA014122F007047FF0D4
:1002400000070023F0E80256083C85EA010586EA2B
:10025000010685FA47F5A3FA87F586FA47F6A5FA67
:1002600087F68EB9EED1F0BC01F0FF0102F0070273
:1002700032B110F8013B013A83EA010313B1F8D11E
:100280000020704701387047002D06BF35460338FF
:10029000073815F0010F07D1013015F4807F02BF38
:1002A000013015F4C03F0130F0BC0138704700BF89
:1002B00070B54FF0FF0C4CF4E06C1CEA11541DBFFC
:1002C0001CEA135594EA0C0F95EA0C0F00F0DEF8C7
:1002D0002C4481EA030621EA4C5123EA4C5350EAAC
:1002E000013518BF52EA033541F4801143F48013FD
:1002F00038D0A0FB02CE4FF00005E1FB02E506F08E
:100300000042E0FB03E54FF00006E1FB03569CF0E2
:10031000000F18BF4EF0010EA4F1FF04B6F5007FE8
:1003200064F5407404D25FEA4E0E6D4146EB06065A
:1003300042EAC62141EA55514FEAC52040EA5E50E3
:100340004FEACE2EB4F1FD0C88BFBCF5E06F1ED88D
:10035000BEF1004F08BF5FEA500E50F1000041EBC4
:10036000045170BD06F0004646EA010140EA020071
:1003700081EA0301B4EB5C04C2BFD4EB0C0541EA93
:10038000045170BD41F480114FF0000E013C00F3A8
:10039000AB8014F1360FDEBF002001F0004170BDCC
:1003A000C4F10004203C35DA0C341BDC04F11404E5
:1003B000C4F1200500FA05F320FA04F001FA05F271
:1003C00040EA020001F0004221F0004110EBD3703E
:1003D00021FA04F642EB06015EEA430E08BF20EA6A
:1003E000D37070BDC4F10C04C4F1200500FA04F30D
:1003F00020FA05F001FA04F240EA020001F000419F
:1004000010EBD37041F100015EEA430E08BF20EA11
:10041000D37070BDC4F1200500FA05F24EEA020E59
:1004200020FA04F301FA05F243EA020321FA04F088
:1004300001F0004121FA04F220EA020000EBD3703F
:100440005EEA430E08BF20EAD37070BD94F0000F3F
:100450000FD101F00046400041EB010111F4801F73
:1004600008BF013CF7D041EA060195F0000F18BF24
:10047000704703F00046520043EB030313F4801F60
:1004800008BF013DF7D043EA0603704794EA0C0F1A
:100490000CEA135518BF95EA0C0F0CD050EA410630
:1004A00018BF52EA4306D1D181EA030101F00041AD
:1004B0004FF0000070BD50EA410606BF10461946D5
:1004C00052EA430619D094EA0C0F02D150EA0136E1
:1004D00013D195EA0C0F05D152EA03361CBF104622
:1004E00019460AD181EA030101F0004141F0FE41C1
:1004F00041F470014FF0000070BD41F0FE4141F445
:10050000780170BD81F0004102E000BF83F000433C
:1005100030B54FEA41044FEA430594EA050F08BF9E
:1005200090EA020F1FBF54EA000C55EA020C7FEA62
:10053000645C7FEA655C00F0E2804FEA5454D4EBDF
:100540005555B8BF6D420CDD2C4480EA020281EAA9
:10055000030382EA000083EA010180EA020281EAE1
:100560000303362D88BF30BD11F0004F4FEA013133
:100570004FF4801C4CEA113102D0404261EB410142
:1005800013F0004F4FEA03334CEA133302D05242C8
:1005900063EB430394EA050F00F0A780A4F1010484
:1005A000D5F1200E0DDB02FA0EFC22FA05F28018BE
:1005B00041F1000103FA0EF2801843FA05F35941A4
:1005C0000EE0A5F120050EF1200E012A03FA0EFC23
:1005D00028BF4CF0020C43FA05F3C01851EBE3714D
:1005E00001F0004507D54FF0000EDCF1000C7EEB6A
:1005F00000006EEB0101B1F5801F1BD3B1F5001FA8
:100600000CD349085FEA30004FEA3C0C04F10104C6
:100610004FEA445212F5800F80F09A80BCF1004FEF
:1006200008BF5FEA500C50F1000041EB045141EA71
:10063000050130BD5FEA4C0C404141EB0101013C3A
:1006400028BFB1F5801FE9D291F0000F04BF014629
:100650000020B1FA81F308BF2033A3F10B03B3F1FB
:1006600020020CDA0C3208DD02F1140CC2F10C028B
:1006700001FA0CF021FA02F10CE002F11402D8BFE9
:10068000C2F1200C01FA02F120FA0CFCDCBF41EAB5
:100690000C019040E41AA2BF01EB0451294330BD84
:1006A0006FEA04041F3C1CDA0C340EDC04F1140461
:1006B000C4F1200220FA04F001FA02F340EA030038
:1006C00021FA04F345EA030130BDC4F10C04C4F17E
:1006D000200220FA02F001FA04F340EA030029465E
:1006E00030BD21FA04F0294630BD94F0000F83F4A8
:1006F000801306BF81F480110134013D4EE77FEA8B
:10070000645C18BF7FEA655C29D094EA050F08BFD6
:1007100090EA020F05D054EA000C04BF19461046B7
:1007200030BD91EA030F1EBF0021002030BD5FEAFB
:10073000545C05D14000494128BF41F0004130BD23
:1007400014F580043CBF01F5801130BD01F0004577
:1007500045F0FE4141F470014FF0000030BD7FEAEA
:10076000645C1ABF194610467FEA655C1CBF0B46E5
:10077000024650EA013406BF52EA033591EA030FFC
:1007800041F4002130BD00BF90F0000F04BF0021F4
:10079000704730B54FF4806404F132044FF0000527
:1007A0004FF0000150E700BF90F0000F04BF0021A0
:1007B000704730B54FF4806404F1320410F0004506
:1007C00048BF40424FF000013EE700BF42004FEA01
:1007D000E2014FEA31014FEA02701FBF12F07F437E
:1007E00093F07F4F81F06051704732F07F4208BF35
:1007F000704793F07F4F04BF41F40021704730B53C
:100800004FF4607401F0004521F000411CE700BF87
:1008100050EA010208BF704730B54FF000050AE00A
:1008200050EA010208BF704730B511F0004502D50B
:10083000404261EB41014FF4806404F132045FEA0D
:10084000915C3FF4D8AE4FF003025FEADC0C18BFB6
:1008500003325FEADC0C18BF033202EBDC02C2F1A8
:10086000200300FA03FC20FA02F001FA03FE40EA3A
:100870000E0021FA02F11444BDE600BF4FEA410226
:10088000B2F1E04324BFB3F5001CDCF1FE5C0DD9EE
:1008900001F0004C4FEAC0024CEA5070B2F1004F38
:1008A00040EB830008BF20F00100704711F0804F3B
:1008B00021D113F13872BCBF01F00040704741F400
:1008C00080114FEA5252C2F11802C2F1200C10FA04
:1008D0000CF320FA02F018BF40F001004FEAC123E8
:1008E0004FEAD32303FA0CFC40EA0C0023FA02F38C
:1008F0004FEA4303CCE77FEA625307D150EA013362
:100900001EBF4FF0FE4040F44000704701F0004031
:1009100040F0FE4040F40000704700BF53B94AB9B0
:10092000002908BF00281CBF4FF0FF314FF0FF30F7
:1009300000F06AB9ADF1080C6DE904CE00F006F8DC
:10094000DDF804E0DDE9022304B070472DE9F0474B
:10095000089D0C46002B4ED194468C458646B2FA33
:1009600082F262D94AB1C2F12003914020FA03F326
:100970000CFA02FC194300FA02FE4FEA1C471FFA68
:100980008CF6B1FBF7F44FEA1E4307FB141143EA60
:10099000014304FB06F199420AD91CEB030304F15D
:1009A000FF3080F01281994240F20F81023C634493
:1009B000591A1FFA8EF3B1FBF7F007FB101143EA47
:1009C000014300FB06F69E420AD91CEB030300F12B
:1009D000FF3180F0FC809E4240F2F980634402388F
:1009E0009B1B40EA044000211DB1D3400022C5E911
:1009F0000032BDE8F0878B4205D90DB1C5E9000191
:100A000000210846F5E7B3FA83F1002946D1A34255
:100A100002D39042C0F0F080861A64EB03030120F9
:100A2000002DE6D0C5E90063E3E7002A40F090809E
:100A3000A1EB0C044FEA1C481FFA8CF70121B4FB10
:100A4000F8F64FEA1E4308FB164443EA044307FB4B
:100A500006F0984208D91CEB030306F1FF3402D2DA
:100A6000984200F2CD8026461C1A1FFA8EF3B4FB82
:100A7000F8F008FB104443EA044300FB07F79F42E9
:100A800008D91CEB030300F1FF3402D29F4200F2AD
:100A9000B0802046DB1B40EA0640A5E7C1F12006F6
:100AA0008B4022FA06F71F4320FA06FC04FA01F3F2
:100AB00043EA0C03F44000FA01F8380C4FEA1349FA
:100AC000B4FBF0FE1FFA87FC00FB1E4449EA044415
:100AD0000EFB0CF9A14502FA01F20AD93C190EF1FC
:100AE000FF3A80F08480A14540F28180AEF1020E91
:100AF0003C44A4EB09041FFA83F9B4FBF0F300FBB8
:100B0000134449EA044403FB0CFCA44507D93C19EF
:100B100003F1FF3067D2A44565D9023B3C4443EA68
:100B20000E40A0FB0293A4EB0C049C42CE469C46D4
:100B300051D34ED055B1B8EB0E0364EB0C0404FA5C
:100B400006F6CB401E43CC40C5E90064002150E7C7
:100B5000C2F1200320FA03F10CFA02FC24FA03F399
:100B600094400C434FEA1C4800FA02FE1FFA8CF72F
:100B7000B3FBF8F008FB1031230C43EA014300FB00
:100B800007F1994208D91CEB030300F1FF362CD280
:100B900099422AD9023863445B1AA4B2B3FBF8F134
:100BA00008FB113344EA034401FB07F3A34208D9CD
:100BB0001CEB040401F1FF3613D2A34211D9023910
:100BC0006444E41A41EA004139E70446F0E6084685
:100BD00006E7C845AED2B9EB020E63EB070C01384D
:100BE000A8E73146EDE7034699E73046D4E7D64615
:100BF0007FE7634402384DE70646234608460FE781
:100C0000023E634430E700BF704700BF80B588B044
:100C100000AF786187ED040AC7ED030A87ED021A79
:100C2000C7ED011AD7ED010A97ED040A786900F0C3
:100C30007FF87B69FA681A607B69BA685A607B69D9
:100C40000022C3F880200023FB610AE07A69FB6977
:100C500002339B0013444FF000021A60FB6901331A
:100C6000FB61FB691D2BF1D97B694FF00002C3F8D2
:100C7000882000BF2037BD4680BD80B485B000AF5E
:100C8000786087ED000A7B68D3F880307A68023399
:100C90009B0013441B68FB607B6893ED017AD7EDE2
:100CA000037A67EE277A97ED007A77EE277AC7ED19
:100CB000027A7B68D3F880307A6802339B00134451
:100CC000BA681A607B68D3F880305A1C7B68C3F816
:100CD00080207B68D3F880207B68D3F884309A42E8
:100CE00003D37B680022C3F880207B68D3ED007AB1
:100CF000B7EE007A37EE677AD7ED007A27EE277ADB
:100D00007B68D3ED006AD7ED037A66EEA77A77EEBB
:100D1000277A7B68C3ED227A7B68D3F8883007EEA8
:100D2000903AB0EE670A1437BD465DF8047B704711
:100D300080B586B000AFF86087ED020AC7ED010A02
:100D4000D7ED027A9FED207A67EE877A97ED017AE8
:100D500067EE277AC7ED057AD7ED027AFDEEE77ADE
:100D600017EE901A194804F0C1FDD7ED017AFDEE97
:100D7000E77A17EE901A164804F0B8FDD7ED027A1C
:100D80009FED117A27EE877AD7ED017A67EE277A01
:100D9000FCEEE77A17EE902AFB68C3F88420FB6824
:100DA000D3F8843019460B4804F0A0FDFB68D3F853
:100DB00084301E2B03D9FB681E22C3F8842000BF99
:100DC0001837BD4680BD00BF6F12833A446F0008DC
:100DD000546F0008606F000880B584B000AFF86001
:100DE00087ED020AC7ED010AFB687A68DA6097EDC1
:100DF000020AF86800F00CF8FB684FF000021A6075
:100E0000FB684FF000025A6000BF1037BD4680BD3E
:100E100080B485B000AF786087ED000A7B68D3EDC1
:100E2000037AB6EE007A67EE877A97ED007AB4EE31
:100E3000E77AF1EE10FA09DD7B68D3ED037AB6EEBE
:100E4000007A67EE877AC7ED007A09E0D7ED007A7D
:100E5000F5EEC07AF1EE10FA02D54FF000033B60D8
:100E6000D7ED007A9FED0E7A67EE876A7B6893ED87
:100E7000037AC6EE877AC7ED037AD7ED037AB7EE29
:100E8000007A37EE877AF7EE006AC6EE877A7B68DB
:100E9000C3ED027A00BF1437BD465DF8047B70478E
:100EA000DB0FC94080B584B000AFF86087ED020A5F
:100EB000C7ED010AFB687A68DA6097ED020AF86804
:100EC00000F008F8FB684FF000021A6000BF10370E
:100ED000BD4680BD80B485B000AF786087ED000A64
:100EE0007B68D3ED037AB6EE007A67EE877A97EDEA
:100EF000007AB4EEE77AF1EE10FA09DD7B68D3ED03
:100F0000037AB6EE007A67EE877AC7ED007A09E0D9
:100F1000D7ED007AF5EEC07AF1EE10FA02D54FF077
:100F200000033B60D7ED007A9FED157A67EE876A84
:100F30007B6893ED037AC6EE877AC7ED037AD7ED27
:100F4000037AB7EE007A37EE877AD7ED036AC6EEFA
:100F5000877A7B68C3ED017AD7ED037AB7EE007A22
:100F600037EE877AF7EE006AC6EE877A7B68C3EDC4
:100F7000027A00BF1437BD465DF8047B704700BF9E
:100F8000DB0FC94080B483B000AF786087ED000A02
:100F90007B6893ED017AD7ED007A27EE277A7B689C
:100FA000D3ED026A7B68D3ED007A66EEA77A77EE1E
:100FB000277A7B68C3ED007A7B68D3ED007AB7EEC1
:100FC000007AF4EEC77AF1EE10FA04DD7B684FF098
:100FD0007E521A600CE07B68D3ED007ABFEE007A97
:100FE000F4EEC77AF1EE10FA02D57B68064A1A6071
:100FF0007B681B6807EE903AB0EE670A0C37BD4677
:101000005DF8047B704700BF000080BF80B584B0EE
:1010100000AF786087ED000AF7EE006A97ED007A7E
:10102000C6EE877A7B68C3ED007A0023FB7312E07B
:10103000FB7B7A689B00134404334FF000021A6074
:10104000FB7B7A6804339B0013444FF000021A6064
:10105000FB7B0133FB73FB7B022BE9D99FED061A67
:10106000F7EE000AB7EE000A786800F009F800BF52
:101070001037BD4680BD00BF00000000000000002A
:10108000B0B586B000AFF86087ED020AC7ED010A7F
:1010900087ED001AB868FFF799FB5BA3D3E900233B
:1010A000FFF706F902460B4614461D46FB681B680F
:1010B0001846FFF78BFB02460B4620462946FFF7F2
:1010C000F7F802460B4610461946FFF7D7FB0346D2
:1010D00000EE103A05F0CAF9F0EE407A77EEA77A02
:1010E000C7ED057AD7ED026A97ED007AC6EE877AEA
:1010F000C7ED047AD7ED016A97ED047AC6EE877AD8
:1011000037EEA77AD7ED057A67EE277AB1EE007A47
:1011100037EE877AD7ED057A67EEA77A77EE277AEA
:10112000FB68C3ED077AD7ED057A37EEA77AD7EDDE
:10113000057A67EE277AB2EE007A77EEC77AFB6817
:10114000C3ED087AD7ED016A97ED047AC6EE877A87
:1011500037EEA77AD7ED057A67EE277AB1EE007AF7
:1011600037EE677AD7ED057A67EEA77A77EE277ABA
:10117000FB68C3ED097AF7EE006A97ED047AC6EED4
:10118000877A37EEA77AD7ED057A67EE277AB1EE40
:10119000007A37EE877AD7ED057A67EEA77A77EE91
:1011A000277AFB68C3ED0A7AD7ED057A37EEA77A7E
:1011B000D7ED057A67EE277AB2EE007A77EEC77A36
:1011C000F1EE677AFB68C3ED0B7AF7EE006A97EDF4
:1011D000047AC6EE877A37EEA77AD7ED057A67EEFE
:1011E000277AB1EE007A37EE677AD7ED057A67EEA7
:1011F000A77A77EE277AF1EE677AFB68C3ED0C7A6F
:1012000000BF1837BD46B0BD182D4454FB2109401E
:1012100080B483B000AF786087ED000A7B689A687D
:101220007B68DA607B685A687B689A607B683A689A
:101230005A607B685A697B689A617B681A697B6827
:101240005A617B68D3ED0A7AF7EE006A86EEA77AD8
:101250007B68D3ED076A7B68D3ED017A66EEA76AF7
:101260007B6893ED086A7B68D3ED027A66EE277A95
:1012700076EEA76A7B6893ED096A7B68D3ED037A03
:1012800066EE277A76EEA76A7B6893ED0B6A7B6839
:10129000D3ED057A26EE276A7B68D3ED0C5A7B687E
:1012A000D3ED067A65EEA77A76EE277A76EEA77A00
:1012B00067EE277A7B68C3ED047A7B681B6907EECB
:1012C000903AB0EE670A0C37BD465DF8047B704774
:1012D00080B483B000AF7860054B064A1A60064BB5
:1012E00001221A8000BF0C37BD465DF8047B7047B1
:1012F000440A0020440700204A0A002080B483B03A
:1013000000AF7860054B064A1A60064B01221A802E
:1013100000BF0C37BD465DF8047B7047440A0020CF
:10132000C40700204A0A002080B584B000AF78606E
:1013300039600023FB73E0E0744B1A68FB7B5B00B1
:1013400013441B881BB207EE903AF8EEE77A9FED44
:10135000707A67EE877A6F4BC3ED007A6D4BD3EDF1
:10136000007AB7EE007AF4EEC77AF1EE10FA04DDF7
:10137000684B4FF07E521A600CE0664BD3ED007A5A
:10138000BFEE007AF4EEC77AF1EE10FA02D5614BA7
:10139000614A1A605D4B1A68FB7B01335B001344A2
:1013A0001B881BB207EE903AF8EEE77A9FED587A69
:1013B00067EE877A594BC3ED007A584BD3ED007A2C
:1013C000B0EE670A5648FFF758FCF0EE407A554BEE
:1013D000C3ED007A534BD3ED007AB7EE007AF4EE0A
:1013E000C77AF1EE10FA04DD4E4B4FF07E521A60D0
:1013F0000CE04C4BD3ED007ABFEE007AF4EEC77AE6
:10140000F1EE10FA02D5474B434A1A60414B93ED77
:10141000007A444BD3ED007A77EE677A424BC3ED06
:10142000007A414BD3ED007AB0EE670A7868FFF797
:10143000A9FDF0EE407A3C4BC3ED007A3A4BD3ED78
:10144000007AB0EE670A3948FFF7E2FEF0EE407A24
:10145000354BC3ED007A344BD3ED007AB7EE087A02
:1014600067EE877A304BC3ED007A2F4BD3ED007ACD
:10147000B7EE007AF4EEC77AF1EE10FA04DD2A4BEB
:101480004FF07E521A600CE0274BD3ED007ABFEE8E
:10149000007AF4EEC77AF1EE10FA02D5224B1E4A1A
:1014A0001A60214B1B68224A13601F4BD3ED007A50
:1014B000B7EE007A77EE877A9FED1E7A67EE877A2D
:1014C000FCEEE77A17EE903A9AB21B4B1A801A4B51
:1014D0001B88B3F5805F02D3134B184A1A60124B76
:1014E0001B68134A1360144B1B88002210211448F8
:1014F00001F023F9FB7B0233FB73FB7B3E2B7FF672
:101500001BAF00BF00BF1037BD4680BD440A00209E
:1015100000000038100B0020000080BF140B0020DA
:10152000840A0020180B00201C0B0020500A002009
:101530004C0A002000F0FF44480A002000F07F45DC
:101540008404002080B584B000AF00F059FF00F0A3
:101550008DF800F0F9F800F047FA00F0FFF900F01C
:101560001BF900F043F900F0CBF900F09BF900F013
:101570006BF910212C4801F089F880222B492C4866
:1015800002F09EF880222B492B4802F099F8802225
:101590002A492B4802F094F82A4BFB60DFED2A1A07
:1015A0009FED2A1AF7EE000A97ED030A2848FFF785
:1015B0002DFB102004F022F80346BB60102004F03D
:1015C0001DF803467B60BB68002B02D07B68002BB4
:1015D00001D100F05CFADFED1C0A9FED1E0AB8682D
:1015E000FFF760FCDFED180A9FED1B0A7868FFF734
:1015F000F3FB9FED150A1948FFF708FD9FED181A38
:10160000F7EE080A9FED170A1448FFF739FD164B4D
:101610001B88002BFBD0144B00221A807968B86815
:10162000FFF782FEF3E700BF840400204407002098
:10163000DC050020440800204C050020440900205F
:1016400094050020C7FAD03E00803B470000000010
:10165000840A00200000FA440000C842500A00201A
:1016600000004842000016434A0A002080B594B0AA
:1016700000AF07F11C0334220021184604F08BF957
:1016800007F1080300221A605A609A60DA601A6152
:1016900000237B602A4B1B6C294A43F08053136460
:1016A000274B1B6C03F080537B607B6800233B60FF
:1016B000244B1B6823F44043224A43F480431360C5
:1016C000204B1B6803F440433B603B680123FB61F4
:1016D0004FF480333B6202237B634FF48003BB6390
:1016E0000D23FB6332233B6402237B640423BB642E
:1016F0000223FB6407F11C03184603F03FFA03467C
:10170000002B01D000F0C3F90F23BB600223FB6064
:1017100000233B614FF480537B614FF48053BB61E6
:1017200007F108030121184602F0D2F90346002B05
:1017300001D000F0ACF900BF5037BD4680BD00BFFE
:10174000003802400070004080B598B000AF3B1DEB
:101750005C220021184604F01EF903237B6032232B
:10176000FB6002233B610D23BB600223BB610223AC
:101770007B610123FB6200233B640023FB633B1D71
:10178000184602F0DDFA0346002B01D000F07FF985
:1017900000BF6037BD4680BD80B582B000AF3B461C
:1017A00000221A605A600F4B0F4A1A600D4800F071
:1017B0004BFF0346002B01D000F069F900233B608A
:1017C00000237B603B4610221946064800F0DFFFED
:1017D0000346002B01D000F05AF900BF0837BD4680
:1017E00080BD00BF840400200074004080B500AFBD
:1017F000124B134A1A60114B124A5A600F4B0022C7
:101800009A600E4B0022DA600C4B4FF480421A6152
:101810000A4B00225A61094B00229A61074B0022B1
:10182000DA61064B00221A62044801F00DFD0346FE
:10183000002B01D000F02BF900BF80BDF804002080
:10184000005C0040A086010080B500AF134B144A35
:101850001A60124B4FF440725A60104B00229A608B
:101860000E4B0122DA600D4B00221A610B4B4BF636
:1018700080325A61094B00229A61084B0022DA61DA
:10188000064B00221A62054801F022FE0346002B97
:1018900001D000F0FCF800BF80BD00BF4C05002067
:1018A0000030014080B500AF134B144A1A60124B50
:1018B0004FF440725A60104B00229A600E4B012286
:1018C000DA600D4B00221A610B4B4BF680325A61E5
:1018D000094B00229A61084B0022DA61064B002274
:1018E0001A62054801F0F4FD0346002B01D000F018
:1018F000CEF800BF80BD00BF940500200038004036
:1019000080B500AF134B144A1A60124B4FF440726B
:101910005A60104B00229A600E4B0122DA600D4B88
:1019200000221A610B4B4BF680325A61094B0022A0
:101930009A61084B0022DA61064B00221A620548C0
:1019400001F0C6FD0346002B01D000F0A0F800BF57
:1019500080BD00BFDC050020003C004080B582B0A7
:1019600000AF00237B601F4B1B6B1E4A43F4001328
:1019700013631C4B1B6B03F400137B607B68002319
:101980003B60184B1B6B174A43F480031363154BE2
:101990001B6B03F480033B603B68002200210B209B
:1019A00000F028FE0B2000F041FE002200210E2056
:1019B00000F020FE0E2000F039FE00220021112050
:1019C00000F018FE112000F031FE00220021382026
:1019D00000F010FE382000F029FE00BF0837BD4699
:1019E00080BD00BF0038024080B485B000AF002346
:1019F000FB601E4B1B6B1D4A43F0800313631B4BA4
:101A00001B6B03F08003FB60FB680023BB60174B7C
:101A10001B6B164A43F001031363144B1B6B03F05B
:101A20000103BB60BB6800237B60104B1B6B0F4A3C
:101A300043F0020313630D4B1B6B03F002037B6047
:101A40007B6800233B60094B1B6B084A43F004038F
:101A50001363064B1B6B03F004033B603B6800BF42
:101A60001437BD465DF8047B704700BF0038024064
:101A700080B582B000AF78607B681B68B3F1804F9F
:101A800001D100F0DFFC00BF0837BD4680BD80B447
:101A900000AF72B600BF00BFFDE7000080B483B0A6
:101AA00000AF00237B60104B5B6C0F4A43F4804314
:101AB00053640D4B5B6C03F480437B607B680023B5
:101AC0003B60094B1B6C084A43F080531364064B80
:101AD0001B6C03F080533B603B6800BF0C37BD4676
:101AE0005DF8047B704700BF0038024080B58AB0C3
:101AF00000AF786007F1140300221A605A609A6000
:101B0000DA601A617B681B68304A934259D100231E
:101B10003B612F4B1B6C2E4A43F0005313642C4B3C
:101B20001B6C03F000533B613B690023FB60284BB7
:101B30001B6B274A43F001031363254B1B6B03F018
:101B40000103FB60FB6820237B610323BB6100234F
:101B5000FB6107F1140319461E4801F0E1F91E4B21
:101B60001E4A1A601C4B4FF060625A601A4B4022AA
:101B70009A60194B0022DA60174B4FF480621A61A9
:101B8000154B4FF400625A61134B4FF400529A61A7
:101B9000114B4FF48072DA610F4B4FF400321A622E
:101BA0000D4B00225A620C4800F04AFE0346002BFF
:101BB00001D0FFF76CFF7B68074ADA60064A7B6852
:101BC000936300BF2837BD4680BD00BF007400404E
:101BD000003802400000024098040020A06002404B
:101BE00080B58AB000AF786007F1140300221A6054
:101BF0005A609A60DA601A617B681B68294A9342CE
:101C00004BD100233B61284B1B6B274A43F0040355
:101C10001363254B1B6B03F004033B613B690023FB
:101C2000FB60214B1B6B204A43F0010313631E4BE7
:101C30001B6B03F00103FB60FB684FF400737B61D7
:101C40001223BB610023FB6103233B6204237B62FD
:101C500007F114031946154801F062F94FF4807337
:101C60007B611223BB610023FB6103233B620423DE
:101C70007B6207F1140319460D4801F051F9002366
:101C8000BB60094B1B6C084A43F400031364064B0A
:101C90001B6C03F40003BB60BB6800BF2837BD4664
:101CA00080BD00BF005C00400038024000080240D8
:101CB0000000024080B590B000AF786007F12C03BF
:101CC00000221A605A609A60DA601A617B681B68A9
:101CD000724A93427DD10023BB62714B5B6C704AA8
:101CE00043F4805353646E4B5B6C03F48053BB62CC
:101CF000BB6A00237B626A4B1B6B694A43F001039A
:101D00001363674B1B6B03F001037B627B6A002349
:101D10003B62634B1B6B624A43F002031363604BED
:101D20001B6B03F002033B623B6A4FF40043FB6210
:101D300002233B6300237B630023BB630523FB6318
:101D400007F12C031946574801F0EAF82823FB62F3
:101D500002233B6300237B630023BB630523FB63F8
:101D600007F12C031946504801F0DAF84F4B504A5E
:101D70001A604E4B4FF0C0625A604C4B00229A6082
:101D80004A4B0022DA60494B4FF480621A61474B9C
:101D90004FF400625A61454B4FF400529A61434B35
:101DA0004FF48072DA61414B4FF400321A623F4BBC
:101DB00000225A623D4800F043FD0346002B01D04B
:101DC000FFF765FE7B68394ADA63384A7B689363BC
:101DD00016E17B681B68374A934271D10023FB618F
:101DE0002F4B1B6C2E4A43F4804313642C4B1B6C0B
:101DF00003F48043FB61FB690023BB61284B1B6B31
:101E0000274A43F002031363254B1B6B03F00203C5
:101E1000BB61BB694FF43043FB6202233B63002389
:101E20007B630023BB630523FB6307F12C03194687
:101E30001D4801F075F8204B204A1A601E4B002205
:101E40005A601D4B00229A601B4B0022DA601A4B2D
:101E50004FF480621A61184B4FF400625A61164BBE
:101E60004FF400529A61144B4FF48072DA61124BB6
:101E70004FF400321A62104B00225A620E4800F0F2
:101E8000DFFC0346002B01D0FFF701FE7B680A4A06
:101E9000DA63094A7B689363B2E000BF0030014017
:101EA00000380240000002400004024024060020E6
:101EB0001064024000380040840600205860024050
:101EC0007B681B68504A934240F09A8000237B61F4
:101ED0004E4B1B6C4D4A43F4004313644B4B1B6C3D
:101EE00003F400437B617B6900233B61474B1B6B21
:101EF000464A43F001031363444B1B6B03F0010399
:101F00003B613B690023FB60404B1B6B3F4A43F046
:101F1000020313633D4B1B6B03F00203FB60FB6882
:101F20000023BB60394B1B6B384A43F00403136337
:101F3000364B1B6B03F00403BB60BB681023FB62D2
:101F400002233B6300237B630023BB630623FB6305
:101F500007F12C0319462E4800F0E2FF0123FB6233
:101F600002233B6300237B630023BB630723FB63E4
:101F700007F12C031946274800F0D2FF4FF4806385
:101F8000FB6202233B6300237B630023BB630623C6
:101F9000FB6307F12C0319461F4800F0C1FF1F4BDC
:101FA0001F4A1A601D4B00225A601C4B00229A6087
:101FB0001A4B0022DA60194B4FF480621A61174BFA
:101FC0004FF400625A61154B4FF400529A61134B63
:101FD0004FF48072DA61114B4FF400321A620F4BEA
:101FE00000225A620D4800F02BFC0346002B01D062
:101FF000FFF74DFD7B68094ADA63084A7B68936303
:1020000000BF4037BD4680BD003C00400038024064
:10201000000002400004024000080240E4060020E4
:102020001060024080B58EB000AF78600023FB6284
:102030000023BB620023FB60344B1B6C334A43F02C
:1020400001031364314B1B6C03F00103FB60FB685D
:1020500007F1100207F114031146184601F03EFE85
:102060003B6AFB62FB6A002B03D101F023FE78631D
:1020700004E001F01FFE03465B007B637B6B244A98
:10208000A2FB03239B0C013BBB62224B4FF080421F
:102090001A60204B40F2E732DA601E4ABB6A536096
:1020A0001C4B00221A611B4B00229A60194B002224
:1020B0009A61184803F000F8034687F8333097F820
:1020C0003330002B1BD1134803F050F8034687F838
:1020D000333097F83330002B11D11C2000F0A6FAD2
:1020E0007B680F2B08D8002279681C2000F082FA48
:1020F000094A7B68136002E0012387F8333097F8C0
:10210000333018463837BD4680BD00BF0038024026
:1021100083DE1B43200B00200404002080B500AFA9
:10212000044B1B68044A934201D0FFF7B0FC00BF88
:1021300080BD00BF00000020ADDEADDE80B400AF8A
:1021400000BFFDE780B500AFFFF7E8FF1EF0040F0A
:102150000CBFEFF30880EFF3098000F05DB800BF1B
:10216000FDE780B400AF00BFFDE780B400AF00BF63
:10217000FDE780B400AF00BFFDE780B400AF00BF53
:10218000BD465DF8047B704780B400AF00BFBD461C
:102190005DF8047B704780B400AF00BFBD465DF8BA
:1021A000047B704780B400AF00BFBD465DF8047B80
:1021B0007047000080B500AF024800F047FC00BF48
:1021C00080BD00BFE406002080B500AF024800F0EB
:1021D0003DFC00BF80BD00BF8406002080B500AF7D
:1021E000024800F033FC00BF80BD00BF980400200F
:1021F00080B500AF024803F029F800BF80BD00BFE2
:10220000200B002080B500AF024800F01FFC00BF8B
:1022100080BD00BF2406002080B485B000AF786088
:10222000064B9B6BFB607B689B69BB6000BE00BF7D
:102230001437BD465DF8047B704700BF00ED00E039
:1022400080B586B000AFF860B9607A6000237B612A
:102250000AE0AFF300800146BB685A1CBA60CAB2FC
:102260001A707B6901337B617A697B689A42F0DB83
:102270007B6818461837BD4680BD80B586B000AF74
:10228000F860B9607A6000237B6109E0BB685A1C82
:10229000BA601B781846AFF300807B6901337B611D
:1022A0007A697B689A42F1DB7B6818461837BD462D
:1022B00080BD80B483B000AF78604FF0FF33184624
:1022C0000C37BD465DF8047B704780B483B000AF27
:1022D000786039603B684FF400525A60002318461A
:1022E0000C37BD465DF8047B704780B483B000AF07
:1022F0007860012318460C37BD465DF8047B7047B3
:1023000080B485B000AFF860B9607A6000231846E9
:102310001437BD465DF8047B7047000080B586B079
:1023200000AF7860144A154BD31A7B617B693B611F
:10233000134B1B68002B02D1114B124A1A60104B31
:102340001A687B6813443A699A4207D203F082FB09
:1023500003460C221A604FF0FF3309E0084B1B685C
:10236000FB60074B1A687B681344054A1360FB68DF
:1023700018461837BD4680BD00000220007D0000D1
:10238000680B0020C00C002080B400AF064BD3F8CF
:102390008830054A43F47003C2F8883000BFBD4658
:1023A0005DF8047B704700BF00ED00E0DFF834D03B
:1023B000FFF7EAFF0C480D490D4A002302E0D4580C
:1023C000C4500433C4188C42F9D30A4A0A4C00237F
:1023D00001E013600432A242FBD303F041FBFFF79C
:1023E000B1F87047000002200000002068040020BF
:1023F000A873000868040020BC0C0020FEE7000061
:1024000080B500AF0E4B1B680D4A43F40073136098
:102410000B4B1B680A4A43F480631360084B1B682C
:10242000074A43F480731360032000F0D8F80F20AC
:10243000FFF7F8FDFFF732FB0023184680BD00BF11
:10244000003C024080B400AF064B1B781A46064B96
:102450001B681344044A136000BFBD465DF8047B4B
:10246000704700BF080400206C0B002080B400AF50
:10247000034B1B681846BD465DF8047B704700BFE0
:102480006C0B002080B485B000AF78607B6803F0EF
:102490000703FB600C4BDB68BB60BA684FF6FF03B9
:1024A0001340BB60FB681A02BB68134343F0BF6371
:1024B00043F40033BB60044ABB68D36000BF1437E9
:1024C000BD465DF8047B704700ED00E080B400AFCE
:1024D000044BDB681B0A03F007031846BD465DF892
:1024E000047B704700ED00E080B483B000AF03468A
:1024F000FB7197F90730002B0BDBFB7903F01F0210
:10250000074997F907305B09012000FA02F241F808
:10251000232000BF0C37BD465DF8047B704700BF29
:1025200000E100E080B483B000AF03463960FB7186
:1025300097F90730002B0ADB3B68DAB20C4997F9B0
:1025400007301201D2B20B4483F800230AE03B6843
:10255000DAB20849FB7903F00F03043B1201D2B24F
:102560000B441A7600BF0C37BD465DF8047B7047FC
:1025700000E100E000ED00E080B489B000AFF86059
:10258000B9607A60FB6803F00703FB61FB69C3F184
:102590000703042B28BF0423BB61FB690433062B0C
:1025A00002D9FB69033B00E000237B614FF0FF325F
:1025B000BB6902FA03F3DA43BB681A407B699A40AD
:1025C0004FF0FF317B6901FA03F3D9437B680B407D
:1025D000134318462437BD465DF8047B704780B529
:1025E00082B000AF78607868FFF74CFF00BF083713
:1025F000BD4680BD80B586B000AF0346B9607A6045
:10260000FB7300237B61FFF761FF78617A68B9682B
:102610007869FFF7B1FF024697F90F301146184667
:10262000FFF780FF00BF1837BD4680BD80B582B080
:1026300000AF0346FB7197F907301846FFF754FFC8
:1026400000BF0837BD4680BD80B582B000AF78605E
:102650007B68002B01D1012314E07B681B79DBB27E
:10266000002B05D17B6800225A717868FFF73EFA8B
:102670007B6802221A717B6800221A617B68012242
:102680001A71002318460837BD4680BD80B483B058
:1026900000AF786039607B68002B01D1012346E0F0
:1026A0007B685B79012B01D1022340E07B6801222A
:1026B0005A717B6802221A717B681B6819683B6833
:1026C00003F0100301229A407B681B680A431A60DA
:1026D0003B68002B0FD17B681B681B6803F03C0331
:1026E0003C2B1DD17B681B685A687B681B6842F0D5
:1026F00001025A6014E07B681B681B6803F47012C7
:102700003B6803F010033C2101FA03F39A4207D11E
:102710007B681B685A687B681B6842F002025A603B
:102720007B6801221A717B6800225A7100231846C7
:102730000C37BD465DF8047B704780B487B000AFAE
:10274000F860B9607A603B6000237B61FB68002B16
:1027500001D1012315E0FB681B687B61BB68002B7E
:1027600005D17A697B68134408337B6104E07A6998
:102770007B68134414337B617B691A463B681360A2
:10278000002318461C37BD465DF8047B704780B4B3
:1027900089B000AFF860B9607A600023FB77FB680E
:1027A000002B02D0BB68002B01D1012342E0FB6863
:1027B0005B79012B01D102233CE0FB6801225A71B5
:1027C000FB6802221A71FB681B681B68BB617B688F
:1027D00003F0100340F6FE7202FA03F3DB43BA691A
:1027E0001340BB61BB681A68BB685B6813437B61BD
:1027F0007B6803F010037A6902FA03F3BA691343A2
:10280000BB61FB681B68BA691A60FB681B681968C2
:102810007B6803F01003C02202FA03F3DA43FB687B
:102820001B680A401A60FB6801221A71FB680022CB
:102830005A71FB7F18462437BD465DF8047B70470C
:1028400080B586B000AF786000237B61FFF70EFE95
:1028500038617B68002B01D1012399E07B6802225B
:1028600083F835207B68002283F834207B681B685E
:102870001A687B681B6822F001021A600FE0FFF7FC
:10288000F5FD02463B69D31A052B08D97B68202247
:102890005A657B68032283F83520032378E07B6840
:1028A0001B681B6803F00103002BE8D17B681B68E1
:1028B0001B687B617A69384B13407B617B685A687F
:1028C0007B689B681A437B68DB681A437B681B69DB
:1028D0001A437B685B691A437B689B691A437B6870
:1028E000DB691A437B681B6A13437A6913437B6174
:1028F0007B685B6A042B07D17B68DA6A7B681B6B99
:1029000013437A6913437B617B681B687A691A6099
:102910007B681B685B697B617B6923F007037B61D4
:102920007B685B6A7A6913437B617B685B6A042B13
:1029300017D17B689B6A7A6913437B617B68DB6A8A
:10294000002B0ED0786800F06FFA0346002B08D0F9
:102950007B6840225A657B68012283F83520012379
:1029600016E07B681B687A695A61786800F026FA7D
:102970000346FB607B68DB6D3F229A40FB689A60F0
:102980007B6800225A657B68012283F8352000238A
:1029900018461837BD4680BD3F8010F080B586B020
:1029A00000AFF860B9607A603B600023FB75FB689C
:1029B0009B6D3B61FB6893F83430012B01D10223FE
:1029C00040E0FB68012283F83420FB6893F835303F
:1029D000DBB2012B2FD1FB68022283F83520FB6884
:1029E00000225A653B687A68B968F86800F0B8F95F
:1029F000FB68DB6D3F229A403B699A60FB681B686D
:102A00001A68FB681B6842F016021A60FB681B6CB0
:102A1000002B07D0FB681B681A68FB681B6842F034
:102A200008021A60FB681B681A68FB681B6842F0A2
:102A300001021A6005E0FB68002283F834200223BB
:102A4000FB75FB7D18461837BD4680BD80B586B046
:102A500000AF78600023BB608E4B1B688E4AA2FBE0
:102A600003239B0A7B617B689B6D3B613B691B6811
:102A7000FB607B68DB6D08229A40FB681340002BEB
:102A80001AD07B681B681B6803F00403002B13D06B
:102A90007B681B681A687B681B6822F004021A6056
:102AA0007B68DB6D08229A403B699A607B685B6DAE
:102AB00043F001027B685A657B68DB6D01229A4016
:102AC000FB681340002B12D07B681B685B6903F026
:102AD0008003002B0BD07B68DB6D01229A403B69A1
:102AE0009A607B685B6D43F002027B685A657B6885
:102AF000DB6D04229A40FB681340002B12D07B68E8
:102B00001B681B6803F00203002B0BD07B68DB6D96
:102B100004229A403B699A607B685B6D43F0040233
:102B20007B685A657B68DB6D10229A40FB68134016
:102B3000002B43D07B681B681B6803F00803002B45
:102B40003CD07B68DB6D10229A403B699A607B68C1
:102B50001B681B6803F48023002B18D07B681B685C
:102B60001B6803F40023002B08D17B681B6C002B2F
:102B700024D07B681B6C786898471FE07B689B6C4F
:102B8000002B1BD07B689B6C7868984716E07B68AD
:102B90001B681B6803F48073002B07D17B681B68DC
:102BA0001A687B681B6822F008021A607B681B6C3D
:102BB000002B03D07B681B6C786898477B68DB6DC3
:102BC00020229A40FB681340002B00F08F807B6826
:102BD0001B681B6803F01003002B00F087807B68E4
:102BE000DB6D20229A403B699A607B6893F8353010
:102BF000DBB2052B36D17B681B681A687B681B68C3
:102C000022F016021A607B681B685A697B681B6891
:102C100022F080025A617B681B6C002B03D17B6819
:102C20009B6C002B07D07B681B681A687B681B684D
:102C300022F008021A607B68DB6D3F229A403B69F4
:102C40009A607B68012283F835207B68002283F834
:102C500034207B681B6D002B7ED07B681B6D7868F1
:102C6000984779E07B681B681B6803F48023002B7E
:102C70001DD07B681B681B6803F40023002B0DD15B
:102C80007B685B6C002B31D07B685B6C7868984705
:102C90002CE000BF00040020B5814E1B7B68DB6B7D
:102CA000002B23D07B68DB6B786898471EE07B683D
:102CB0001B681B6803F48073002B0FD17B681B68B3
:102CC0001A687B681B6822F010021A607B68012278
:102CD00083F835207B68002283F834207B68DB6B27
:102CE000002B03D07B68DB6B786898477B685B6D53
:102CF000002B32D07B685B6D03F00103002B22D0E8
:102D00007B68052283F835207B681B681A687B681E
:102D10001B6822F001021A60BB680133BB607A694C
:102D20009A4207D37B681B681B6803F00103002BE2
:102D3000F2D100E000BF7B68012283F835207B6878
:102D4000002283F834207B68DB6C002B05D07B6885
:102D5000DB6C7868984700E000BF1837BD4680BD3F
:102D600080B485B000AFF860B9607A603B60FB6802
:102D70001B681A68FB681B6822F480221A60FB68D3
:102D80001B683A685A60FB689B68402B08D1FB6857
:102D90001B687A689A60FB681B68BA68DA6007E0AB
:102DA000FB681B68BA689A60FB681B687A68DA601F
:102DB00000BF1437BD465DF8047B704780B485B012
:102DC00000AF78607B681B68DBB2103B144AA2FB43
:102DD00003231B09FB60134AFB6813441B781A4644
:102DE0007B68DA65FB68032B09D97B681B6823F4D1
:102DF0007F7323F003031A1D7B689A6507E07B68E5
:102E00001B6823F47F7323F003037A6893657B6860
:102E10009B6D18461437BD465DF8047B704700BFB4
:102E2000ABAAAAAA8C6F000880B485B000AF786006
:102E30000023FB737B689B6ABB607B689B69002BEC
:102E40001FD1BB68032B56D801A252F823F000BF54
:102E5000612E0008732E0008612E0008F72E00086E
:102E60007B68DB6A03F08073002B46D00123FB7381
:102E700043E07B68DB6AB3F1C07F40D10123FB7381
:102E80003DE07B689B69B3F5005F21D1BB68032BF4
:102E900037D801A252F823F0A92E0008AF2E00085F
:102EA000A92E0008C12E00080123FB7330E07B68C7
:102EB000DB6A03F08073002B25D00123FB7322E033
:102EC0007B68DB6AB3F1C07F1FD10123FB731CE079
:102ED000BB68022B03D9BB68032B03D018E0012386
:102EE000FB7315E07B68DB6A03F08073002B0ED068
:102EF0000123FB730BE000BF0AE000BF08E000BF46
:102F000006E000BF04E000BF02E000BF00E000BF39
:102F1000FB7B18461437BD465DF8047B704700BF45
:102F200080B489B000AF7860396000237B610023F2
:102F30003B610023BB610023FB6165E10122FB696A
:102F400002FA03F37B613B681B687A6913403B61BB
:102F50003A697B699A4240F054813B685B6803F0B0
:102F60000303012B05D03B685B6803F00303022BCE
:102F700030D17B689B68BB61FB695B00032202FA6E
:102F800003F3DB43BA691340BB613B68DA68FB6952
:102F90005B0002FA03F3BA691343BB617B68BA6949
:102FA0009A607B685B68BB610122FB6902FA03F3EC
:102FB000DB43BA691340BB613B685B681B0903F0E4
:102FC0000102FB6902FA03F3BA691343BB617B6830
:102FD000BA695A603B685B6803F00303032B17D0A0
:102FE0007B68DB68BB61FB695B00032202FA03F3C9
:102FF000DB43BA691340BB613B689A68FB695B00BD
:1030000002FA03F3BA691343BB617B68BA69DA60F9
:103010003B685B6803F00303022B23D1FB69DA08EA
:103020007B68083253F82230BB61FB6903F0070369
:103030009B000F2202FA03F3DB43BA691340BB6122
:103040003B681A69FB6903F007039B0002FA03F36C
:10305000BA691343BB61FB69DA087B680832B96956
:1030600043F822107B681B68BB61FB695B0003228D
:1030700002FA03F3DB43BA691340BB613B685B6848
:1030800003F00302FB695B0002FA03F3BA6913431E
:10309000BB617B68BA691A603B685B6803F44033C4
:1030A000002B00F0AE800023FB605D4B5B6C5C4A44
:1030B00043F4804353645A4B5B6C03F48043FB60DE
:1030C000FB68584AFB699B08023352F82330BB6106
:1030D000FB6903F003039B000F2202FA03F3DB43B7
:1030E000BA691340BB617B684F4A934225D07B6825
:1030F0004E4A93421FD07B684D4A934219D07B6859
:103100004C4A934213D07B684B4A93420DD07B6864
:103110004A4A934207D07B68494A934201D1062329
:103120000CE007230AE0052308E0042306E003235C
:1031300004E0022302E0012300E00023FA6902F028
:10314000030292009340BA691343BB613549FB699E
:103150009B080233BA6941F823203A4B9B68BB6154
:103160003B69DB43BA691340BB613B685B6803F4AE
:103170008013002B03D0BA693B691343BB61314A0A
:10318000BB6993602F4BDB68BB613B69DB43BA696A
:103190001340BB613B685B6803F40013002B03D052
:1031A000BA693B691343BB61264ABB69D360254BAF
:1031B0005B68BB613B69DB43BA691340BB613B6839
:1031C0005B6803F40033002B03D0BA693B691343F7
:1031D000BB611C4ABB6953601A4B1B68BB613B69EE
:1031E000DB43BA691340BB613B685B6803F480331F
:1031F000002B03D0BA693B691343BB61114ABB6919
:103200001360FB690133FB61FB690F2B7FF696AE00
:1032100000BF00BF2437BD465DF8047B704700BF88
:103220000038024000380140000002400004024023
:1032300000080240000C024000100240001402404E
:1032400000180240003C014080B584B000AF7860B7
:103250007B68002B01D101232BE17B6893F83D3083
:10326000DBB2002B06D17B68002283F83C20786813
:10327000FEF7B6FC7B68242283F83D207B681B6840
:103280001A687B681B6822F001021A607B681B6861
:103290001A687B681B6842F400421A607B681B68EE
:1032A0001A687B681B6822F400421A6000F002FD75
:1032B000F8607B685B68814A934207D8FB68804A64
:1032C000934294BF01230023DBB206E0FB687D4AF2
:1032D000934294BF01230023DBB2002B01D00123D2
:1032E000E7E0FB68784AA2FB03239B0CBB607B688A
:1032F0001B685B6823F03F017B681B68BA680A4360
:103300005A607B681B681B6A23F03F017B685B681F
:103310006A4A934202D8BB68013309E0BB684FF4A4
:10332000967202FB03F3694AA2FB03239B09013354
:103330007A6812680B4313627B681B68DB6923F4AD
:103340004F4222F0FF027B685B685C498B4219D8D0
:10335000FB68591E7B685B685B00B1FBF3F3591C8B
:1033600040F6FC730B40002B0AD0FB68591E7B68AB
:103370005B685B00B1FBF3F30133C3F30B0351E074
:1033800004234FE07B689B68002B11D1FB68581E1B
:103390007B6859680B465B000B44B0FBF3F30133C9
:1033A000C3F30B03002B0CBF01230023DBB212E09D
:1033B000FB68581E7B6859680B469B000B449900BC
:1033C0000B44B0FBF3F30133C3F30B03002B0CBF2F
:1033D00001230023DBB2002B01D0012322E07B6814
:1033E0009B68002B0ED1FB68581E7B6859680B4602
:1033F0005B000B44B0FBF3F30133C3F30B0343F463
:1034000000430FE0FB68581E7B6859680B469B0021
:103410000B4499000B44B0FBF3F30133C3F30B03EC
:1034200043F44043796809681343CB617B681B68A8
:103430001B6823F0C0017B68DA697B681B6A1A434A
:103440007B681B680A431A607B681B689B6823F4CF
:10345000034323F0FF037A6811697A68D268114345
:103460007A6812680B4393607B681B68DB6823F003
:10347000FF017B685A697B689B691A437B681B68FC
:103480000A43DA607B681B681A687B681B6842F035
:1034900001021A607B6800221A647B68202283F88C
:1034A0003D207B6800221A637B68002283F83E205F
:1034B000002318461037BD4680BD00BFA08601001E
:1034C0007F841E00FF083D0083DE1B43D34D621046
:1034D00080B588B000AF78607B68002B01D10123F4
:1034E000E1E07B6893F84130DBB2002B09D17B68C7
:1034F000002283F840207B686D4A5A637868FEF7A3
:10350000D9FB7B68022283F841207B681B68DB695A
:103510007A68126823F47B6323F00F03D3617B681E
:103520001B6802221A627B685B69022B6FD07B6882
:10353000DB68002B02D110237B6101E020237B613B
:103540007B689B68202B02D87B695B007B617B6872
:103550001B68584A934204D07B681B68564A9342C2
:1035600004D1012000F016FFF86003E0022000F013
:1035700011FFF8607B681B69B3F5007F25D17B687C
:10358000DB68002B10D07B699B00FA68B2FBF3F27A
:1035900013469B0013445B001A467B685B69B2FBD1
:1035A000F3F305333B611FE07B69DB00FA68B2FB94
:1035B000F3F213469B0013445B001A467B685B6979
:1035C000B2FBF3F305333B610EE0FA687B69B2FBB3
:1035D000F3F213469B0013445B001A467B685B6959
:1035E000B2FBF3F305333B613B69344AA2FB03238F
:1035F000DB083B613B6903F00103BB613A69BB69CE
:10360000D31A5B08FB61BB691B02BB6103E00223A9
:10361000FB610023BB61FB69012B02D9FB69FF2B16
:1036200007D97B685B6C43F010027B685A64012306
:1036300039E07B681A69BB6942EA03017B681B6851
:10364000FA690A431A627B681B68DB6923F47B63AF
:1036500023F00F037A6851687A68926811437A6898
:10366000D26811437A6892690A431A437B681B68DF
:1036700042F40062DA617B689B68302B03D07B6880
:103680009B68B02B07D17B681B68DA697B681B6875
:1036900042F48052DA617B6800225A647B6801221E
:1036A00083F84120002318462037BD4680BD00BF67
:1036B000BD39000800380040003C0040CDCCCCCCE7
:1036C00080B586B000AFF860B9601346FB80BB6878
:1036D000002B02D0FB88002B01D101239DE0FB6869
:1036E00093F84130DBB2012B01D0022395E0FB6857
:1036F00093F84030DBB2012B01D102238DE0FB684F
:10370000012283F84020FB68042283F84120FB68F3
:1037100000225A64FB68BA68DA62FB681B68DB69DE
:1037200003F007037B617B69032B02D07B69052BC8
:103730000AD1FB885B009AB2FB681A86FB885B00A3
:103740009AB2FB685A8605E0FB68FA881A86FB681D
:10375000FA885A86FB68DB6B324A1A64FB68DB6BBB
:10376000314ADA63FB68DB6B304ADA64FB681B685A
:10377000DB6903F44073B3F5407F0AD100233B615A
:10378000FB681B68DB683B61FB681B689B683B61EF
:103790003B69FB68D86BFB681B680C331946FB68F8
:1037A000DB6A1A46FB681B8E9BB2FFF7F7F80346ED
:1037B000002B0FD0FB685B6C43F00802FB685A6477
:1037C000FB68012283F84120FB68002283F8402037
:1037D000012322E0FB68002283F84020FB681B687D
:1037E0005B6803F00103002B07D1FB681B685A6874
:1037F000FB681B6842F001025A60FB681B68DB69CA
:1038000003F48063002B07D1FB681B68DA69FB684F
:103810001B6842F48062DA61002318461837BD46FF
:1038200080BD00BF9B38000859380008B738000831
:1038300080B483B000AF786000BF0C37BD465DF840
:10384000047B704780B483B000AF786000BF0C3752
:10385000BD465DF8047B704780B584B000AF7860EA
:103860007B689B6BFB607B68DB69002B0ED1FB6880
:103870001B685A68FB681B6822F001025A60FB68EB
:1038800000225A86FB68012283F84120F868FDF780
:1038900035FD00BF1037BD4680BD80B584B000AF98
:1038A00078607B689B6BFB60F868FDF711FD00BFDB
:1038B0001037BD4680BD80B584B000AF78607B68AE
:1038C0009B6BFB60FB681B685A68FB681B6822F0F7
:1038D00003025A60FB6800225A85FB6800225A8660
:1038E000FB68012283F84120FB685B6C43F008020F
:1038F000FB685A64F868FFF7A5FF00BF1037BD46A4
:1039000080BD80B582B000AF78607B685B6A1A8842
:103910007B681B68DA607B685B6A9A1C7B685A620A
:103920007B685B8D9BB2013B9AB27B685A857B6852
:103930005B8D9BB2002B0ED17B681B685A687B683D
:103940001B6822F0A0025A607B68012283F84120A4
:103950007868FFF76DFF00BF0837BD4680BD80B5B2
:1039600082B000AF78607B681B68DA687B68DB6ACE
:1039700092B21A807B68DB6A9A1C7B68DA627B6889
:103980005B8E9BB2013B9AB27B685A867B685B8EEA
:103990009BB2002B0ED17B681B685A687B681B6842
:1039A00022F060025A607B68012283F84120786827
:1039B000FDF7A4FC00BF0837BD4680BD80B586B0CA
:1039C00000AF78607B681B689B687B617B6893F8BD
:1039D0004130DBB2042B3AD17B6903F00103012BA8
:1039E00009D17B681B685B6803F04003402B02D160
:1039F0007868FFF7B4FF7B6903F04003402B26D1C2
:103A00007B681B685B6803F02003202B1FD17B6859
:103A10001B685A687B681B6822F060025A600023AA
:103A20003B617B681B68DB683B617B681B689B684C
:103A30003B613B697B68012283F841207B685B6CBA
:103A400043F002027B685A647868FFF7FBFE7B68EC
:103A500093F84130DBB2032B36D17B6903F00203CC
:103A6000022B09D17B681B685B6803F08003802B05
:103A700002D17868FFF745FF7B6903F00803082B44
:103A800022D17B681B685B6803F02003202B1BD1CD
:103A90007B681B685A687B681B6822F0A0025A602A
:103AA0000023FB607B681B689B68FB60FB687B688E
:103AB000012283F841207B685B6C43F004027B6841
:103AC0005A647868FFF7BEFE00BF1837BD4680BD58
:103AD00080B584B000AF786039607B68002B01D17D
:103AE0000123CCE0684B1B6803F00F033A689A424D
:103AF0000CD9654B3A68D2B21A70634B1B6803F05D
:103B00000F033A689A4201D00123B8E07B681B6832
:103B100003F00203002B20D07B681B6803F0040332
:103B2000002B05D0594B9B68584A43F4E0539360EF
:103B30007B681B6803F00803002B05D0534B9B6880
:103B4000524A43F460439360504B9B6823F0F00269
:103B50007B689B684D4913438B607B681B6803F04F
:103B60000103002B44D07B685B68012B07D1474BD6
:103B70001B6803F40033002B19D101237FE07B681D
:103B80005B68022B03D07B685B68032B07D13F4B3C
:103B90001B6803F00073002B09D101236FE03B4B3E
:103BA0001B6803F00203002B01D1012367E0374BB0
:103BB0009B6823F003027B685B68344913438B6086
:103BC000FEF754FCF8600AE0FEF750FC0246FB6882
:103BD000D31A41F28832934201D903234FE02B4B91
:103BE0009B6803F00C027B685B689B009A42EBD1F8
:103BF000254B1B6803F00F033A689A420CD2224B04
:103C00003A68D2B21A70204B1B6803F00F033A686F
:103C10009A4201D0012332E07B681B6803F0040361
:103C2000002B08D0194B9B6823F4E0527B68DB68BB
:103C3000164913438B607B681B6803F00803002B55
:103C400009D0124B9B6823F460427B681B69DB0040
:103C50000E4913438B6000F0E7FD02460B4B9B6857
:103C60001B0903F00F030A49CB5C22FA03F3094A4C
:103C70001360094B1B681846FEF7D4F90023184659
:103C80001037BD4680BD00BF003C024000380240F6
:103C9000746F0008000400200404002080B400AF0A
:103CA000034B1B681846BD465DF8047B704700BF98
:103CB0000004002080B500AFFFF7F0FF0246054B7F
:103CC0009B689B0A03F007030349CB5C22FA03F3CA
:103CD000184680BD00380240846F000880B483B06D
:103CE00000AF786039607B680F221A60124B9B68C6
:103CF00003F003027B685A600F4B9B6803F0F002ED
:103D00007B689A600C4B9B6803F4E0527B68DA6036
:103D1000094B9B68DB0803F4E0527B681A61074B90
:103D20001B6803F00F023B681A6000BF0C37BD46EA
:103D30005DF8047B704700BF00380240003C024041
:103D400080B58CB000AF786000237B6200233B62BB
:103D50000023FB610023BB6100237B6100233B61E7
:103D60000023FB600023FB620023BB627B681B68AF
:103D700003F00103002B10D06F4BD3F88C3023F0ED
:103D8000C0627B689B6B6C491343C1F88C307B68C5
:103D90009B6B002B01D10123FB627B681B6803F046
:103DA0000203002B10D0644BD3F88C3023F0C052A8
:103DB0007B68DB6B60491343C1F88C307B68DB6B3D
:103DC000002B01D10123FB627B681B6803F0040315
:103DD000002B17D0584BD3F88C3023F440127B685B
:103DE0001B6B55491343C1F88C307B681B6BB3F5D3
:103DF000801F01D10123FB627B681B6B002B01D16B
:103E00000123BB627B681B6803F00803002B17D0FB
:103E1000494BD3F88C3023F440027B685B6B4649F6
:103E20001343C1F88C307B685B6BB3F5800F01D115
:103E30000123FB627B685B6B002B01D10123BB621A
:103E40007B681B6803F02003002B00F08A800023AE
:103E5000BB60394B1B6C384A43F080531364364BBC
:103E60001B6C03F08053BB60BB68344B1B68334A48
:103E700043F480731360FEF7F9FA786208E0FEF706
:103E8000F5FA02467B6AD31A022B01D9032378E2A2
:103E90002A4B1B6803F48073002BF0D0264B1B6F5A
:103EA00003F440733B623B6A002B2FD07B681B6C92
:103EB00003F440733A6A9A4228D01F4B1B6F23F4D5
:103EC00040733B621E4B01221A601D4B00221A6098
:103ED000194A3B6A1367184B1B6F03F00103012B50
:103EE00014D1FEF7C3FA78620AE0FEF7BFFA024681
:103EF0007B6AD31A41F28832934201D9032340E20C
:103F00000D4B1B6F03F00203002BEED07B681B6C84
:103F100003F44073B3F5407F14D1074B9B6823F43F
:103F2000F8127B681B6C23F0704323F44073024942
:103F300013438B600CE000BF00380240007000406B
:103F4000400E47424A4B9B68494A23F4F81393605A
:103F5000474B1A6F7B681B6CC3F30B034449134335
:103F60000B677B681B6803F01003002B04D07B6891
:103F700093F858203F4B1A607B681B6803F080035E
:103F8000002B0AD03A4BD3F8943023F440027B68DC
:103F9000DB6C37491343C1F894307B681B6803F02E
:103FA0004003002B0AD0324BD3F8943023F08062C8
:103FB0007B689B6C2E491343C1F894307B681B6867
:103FC00003F48073002B11D0294BD3F8943023F0E5
:103FD00000627B685B6D26491343C1F894307B68AF
:103FE0005B6DB3F1006F01D10123BB627B681B687D
:103FF00003F40073002B0AD01D4BD3F8943023F048
:1040000080527B685B6C1A491343C1F894307B681B
:104010001B6803F48063002B11D0154BD3F8943048
:1040200023F000527B681B6D11491343C1F8943093
:104030007B681B6DB3F1005F01D10123FB62FB6A5A
:10404000012B05D07B681B68B3F5006F40F0FF8043
:10405000094B00221A60FEF709FA78620EE0FEF7BB
:1040600005FA02467B6AD31A022B07D9032388E19B
:1040700000380240E0114742680047427E4B1B680F
:1040800003F00063002BEAD17B681B6803F0010397
:10409000002B03D07B689B6B002B09D07B681B68CF
:1040A00003F00203002B28D07B68DB6B002B24D1AC
:1040B000714BD3F884301B0C03F0030301335B0016
:1040C000FB616D4BD3F884301B0E03F00F03BB6113
:1040D0007B685A687B689B689B011A43FB695B0895
:1040E000013B1B041A43BB691B061A437B685B69CF
:1040F0001B0761491343C1F884307B681B6803F0D8
:104100000403002B04D07B681B6BB3F5801F0AD01F
:104110007B681B6803F00803002B35D07B685B6B62
:10412000B3F5800F30D1544BD3F884301B0C03F01F
:10413000030301335B00FB614F4BD3F884301B0F4B
:1041400003F007037B617B685A687B689B689B016F
:104150001A43FB695B08013B1B041A437B681B691C
:104160001B061A437B691B0743491343C1F884307C
:10417000414BD3F88C3023F01F027B689B6A013BD4
:104180003D491343C1F88C307B681B6803F480639E
:10419000002B29D07B681B6DB3F1005F24D1364B17
:1041A000D3F884301B0C03F0030301335B00BB61C5
:1041B000314BD3F884301B0F03F007037B617B681E
:1041C0005A687B689B689B011A437B68DB685B08C5
:1041D000013B1B041A43BB691B061A437B691B077F
:1041E00025491343C1F884307B681B6803F40063DE
:1041F000002B16D07B685A687B689B689B011A432A
:104200007B68DB685B08013B1B041A437B681B6906
:104210001B061A437B685B691B0717491343C1F8E8
:104220008430164B01221A60FEF720F9786208E00C
:10423000FEF71CF902467B6AD31A022B01D903232D
:104240009FE00D4B1B6803F00063002BF0D0BB6AAE
:10425000012B40F095800A4B00221A60FEF706F908
:1042600078620FE0FEF702F902467B6AD31A022B4E
:1042700008D9032385E000BF0038024068004742A8
:1042800070004742414B1B6803F00053B3F1005FDD
:10429000E8D07B681B6803F00403002B03D07B6825
:1042A0001B6B002B09D07B681B6803F00803002BF5
:1042B0002BD07B685B6B002B27D1344BD3F8883035
:1042C0001B0C03F0030301335B003B617B689A69BD
:1042D0007B68DB699B011A433B695B08013B1B045C
:1042E0001A437B685B6A1B0628491343C1F8883070
:1042F000264BD3F88C3023F4F8527B68DB6A013B01
:104300001B0222491343C1F88C307B681B6803F4FD
:104310008073002B1DD07B685B6DB3F1006F18D1EB
:104320001A4BD3F888301B0E03F00F03FB607B6839
:104330009A697B68DB699B011A437B681B6A5B088F
:10434000013B1B041A43FB681B0610491343C1F8C9
:1043500088300F4B01221A60FEF788F8786208E077
:10436000FEF784F802467B6AD31A022B01D9032395
:1043700007E0064B1B6803F00053B3F1005FEFD179
:10438000002318463037BD4680BD00BF00380240CC
:104390007000474280B489B000AF786000237B6131
:1043A0000023FB610023BB6100233B610023FB6012
:1043B0000023BB607B68013B072B00F2248201A233
:1043C00052F823F0C7450008F146000807480008E6
:1043D000E5430008074800080748000807480008A8
:1043E000E5430008A84BD3F88C303B613B6903F4EC
:1043F00070033B613B69B3F5400F00F0D6803B6929
:10440000B3F5400F00F2DD803B69B3F5000F00F01B
:104410009F803B69B3F5000F00F2D3803B69B3F591
:10442000800F5BD03B69B3F5800F00F2CA803B6917
:10443000B3F5401F00F0B6803B69B3F5401F00F2B2
:10444000C0803B69B3F5001F00F082803B69B3F583
:10445000001F00F2B6803B69002B04D03B69B3F526
:10446000801F3BD0ADE0884B5B6803F48003002BDA
:1044700009D1854BD3F8883003F03F03834AB2FB60
:10448000F3F3BB6108E0804BD3F8883003F03F03BF
:104490007F4AB2FBF3F3BB617B4BD3F888301B0E32
:1044A00003F00F037B61784BD3F888309B09C3F38B
:1044B0000803BA6903FB02F27B69B2FBF3F3FB6109
:1044C000714BD3F88C301B0A03F01F0301337B615F
:1044D000FA697B69B2FBF3F3FB6173E06A4B5B68DB
:1044E00003F48003002B09D1674BD3F8843003F029
:1044F0003F03664AB2FBF3F3BB6108E0624BD3F8BB
:10450000843003F03F03624AB2FBF3F3BB615E4BBE
:10451000D3F884301B0E03F00F037B615A4BD3F8A2
:1045200084309B09C3F30803BA6903FB02F27B6979
:10453000B2FBF3F3FB61544BD3F88C3003F01F0351
:1045400001337B61FA697B69B2FBF3F3FB6139E00C
:104550004D4B5B6803F48003002B08D14A4B5B682A
:1045600003F03F03494AB2FBF3F3BB6107E0464B5C
:104570005B6803F03F03464AB2FBF3F3BB61424B77
:104580005B681B0F03F007037B613F4B5B689B0974
:10459000C3F30803BA6903FB02F27B69B2FBF3F3CE
:1045A000FB610FE03B4BFB610CE0374B5B6803F4B6
:1045B0008003002B02D1354BFB6103E0344BFB61E0
:1045C00000E000BF20E1304BD3F88C3003F0C06333
:1045D000FB60FB68B3F1C06F79D0FB68B3F1C06FCB
:1045E00000F28280FB68B3F1806F3CD0FB68B3F1CE
:1045F000806F79D8FB68002B06D0FB68B3F1007F91
:1046000072D1244BFB6172E01F4B5B6803F48003A3
:10461000B3F5800F09D11C4BD3F8843003F03F036E
:104620001B4AB2FBF3F3BB6108E0174BD3F88430AD
:1046300003F03F03154AB2FBF3F3BB61124BD3F80F
:1046400084309B09C3F30802BB6902FB03F3BB6020
:104650000D4BD3F884301B0F03F00703BA68B2FB8D
:10466000F3F3FB6143E0084B5B6803F48003B3F5AD
:10467000800F11D1044B5B6803F03F03044AB2FB87
:10468000F3F3BB6110E000BF003802400024F400E7
:1046900080BA8C010080BB005F4B5B6803F03F0376
:1046A0005E4AB2FBF3F3BB615B4B5B689B09C3F3F0
:1046B0000802BB6902FB03F3BB60574B5B681B0F2F
:1046C00003F00703BA68B2FBF3F3FB610FE0524B50
:1046D0005B6803F48003B3F5800F02D1504BFB619C
:1046E00005E04E4BFB6102E00023FB6100BF8BE065
:1046F000494BD3F88C3003F0C053FB60FB68B3F137
:10470000C05F6FD0FB68B3F1C05F78D8FB68B3F1CE
:10471000805F3CD0FB68B3F1805F70D8FB68002BF2
:1047200006D0FB68B3F1006F69D13E4BFB6169E0D5
:10473000394B5B6803F48003B3F5800F09D1364B26
:10474000D3F8843003F03F03354AB2FBF3F3BB6187
:1047500008E0314BD3F8843003F03F032F4AB2FB1B
:10476000F3F3BB612C4BD3F884309B09C3F30802ED
:10477000BB6902FB03F3BB60274BD3F884301B0FEC
:1047800003F00703BA68B2FBF3F3FB613AE0224B94
:104790005B6803F48003B3F5800F08D11E4B5B68A0
:1047A00003F03F031E4AB2FBF3F3BB6107E01A4B71
:1047B0005B6803F03F03194AB2FBF3F3BB61164B8E
:1047C0005B689B09C3F30802BB6902FB03F3BB6090
:1047D000114B5B681B0F03F00703BA68B2FBF3F3DE
:1047E000FB610FE00C4B5B6803F48003B3F5800FB3
:1047F00002D10B4BFB6105E0084BFB6102E000239B
:10480000FB6100BF00E000BFFB6918462437BD46CE
:104810005DF8047B704700BF003802400024F400BC
:1048200080BA8C010080BB002DE9B04FA6B000AF6C
:104830000023C7F88C300023C7F894300023C7F852
:1048400088300023C7F884300023C7F89030C84B65
:104850009B6803F00C030C2B00F27E8101A252F83E
:1048600023F000BF99480008594B0008594B000835
:10487000594B0008A1480008594B0008594B000843
:10488000594B0008A9480008594B0008594B00082B
:10489000594B0008134A0008B64BC7F890305FE147
:1048A000B54BC7F890305BE1B14B5B6803F03F0359
:1048B000C7F88C30AE4B5B6803F48003002B31D01B
:1048C000AB4B5B689B090022BB66FA66BB6EC3F309
:1048D00008033B6600237B66A74BD7E918452A46A9
:1048E00003FB02F20023214601FB03F31344A24A17
:1048F0002146A1FB0212FA670A46BA67FA6F13440F
:10490000FB67D7F88C300022BB65FA65D7E9162320
:10491000D7E91E01FCF702F802460B461346C7F81A
:10492000943064E0924B5B689B0900223B657A659A
:104930003B6DC3F30803BB640023FB64D7E9124556
:1049400022462B464FF000004FF00001590141EA8A
:10495000D261500102460B462146511A396129465F
:1049600063EB01037B614FF000024FF00003D7E9D6
:1049700004AB59468B01514643EA916351468A0183
:104980005146B2EB0108594663EB01094FF00002B2
:104990004FF000034FEAC90343EA58734FEAC802D5
:1049A00090469946234618EB0303BB602B4649EB20
:1049B0000303FB604FF000024FF00003D7E902450C
:1049C00029468B02214643EA915321468A0210462A
:1049D0001946D7F88C3000223B647A64D7E910235B
:1049E000FBF79CFF02460B461346C7F89430604B1A
:1049F0005B681B0C03F0030301335B00C7F88830CE
:104A0000D7F89420D7F88830B2FBF3F3C7F890308A
:104A1000A6E0574B5B6803F03F03C7F88C30544B5C
:104A20005B6803F48003002B2AD0514B5B689B0921
:104A30000022BB63FA63BB6BC3F3080000214E4B3B
:104A400003FB01F2002300FB03F313444A4AA0FBDB
:104A500002127A670A463A677A6F13447B67D7F87F
:104A60008C3000223B637A63D7E90C23D7E91C0121
:104A7000FBF754FF02460B461346C7F894305BE041
:104A80003B4B5B689B090022BB62FA62BB6AC3F3C3
:104A900008033B6200237B62D7E9088942464B4604
:104AA0004FF000004FF00001590141EAD26150017E
:104AB00002460B464146B2EB010A494663EB010B45
:104AC0004FF000024FF000034FEA8B1343EA9A6362
:104AD0004FEA8A12B2EB0A0463EB0B054FF00002B7
:104AE0004FF00003EB0043EA5473E20014461D4606
:104AF0004346E3183B604B4645EB03037B604FF0B6
:104B000000024FF00003D7E9004529468B022146F9
:104B100043EA915321468A0210461946D7F88C3051
:104B20000022BB61FA61D7E90623FBF7F7FE0246D4
:104B30000B461346C7F894300D4B5B681B0F03F010
:104B40000703C7F88430D7F89420D7F88430B2FB35
:104B5000F3F3C7F8903003E0064BC7F8903000BF7E
:104B6000D7F8903018469837BD46BDE8B08F00BFE3
:104B7000003802400024F40080BA8C0180B586B071
:104B800000AF78607B68002B01D101238DE27B6848
:104B90001B6803F00103002B00F08380944B9B689B
:104BA00003F00C03042B19D0914B9B6803F00C030A
:104BB000082B06D18E4B5B6803F48003B3F5800F9E
:104BC0000CD08B4B9B6803F00C030C2B12D1884B41
:104BD0005B6803F48003B3F5800F0BD1844B1B6833
:104BE00003F40033002B5BD07B685B68002B57D14C
:104BF00001235AE27B685B68B3F5803F06D17C4BAA
:104C00001B687B4A43F4803313601DE07B685B685C
:104C1000B3F5A02F0CD1764B1B68754A43F4802363
:104C20001360734B1B68724A43F4803313600BE0CC
:104C30006F4B1B686E4A23F4803313606C4B1B6808
:104C40006B4A23F4802313607B685B68002B13D0CE
:104C5000FDF70CFC386108E0FDF708FC02463B69F3
:104C6000D31A642B01D903231FE2614B1B6803F4A1
:104C70000033002BF0D014E0FDF7F8FB386108E0BA
:104C8000FDF7F4FB02463B69D31A642B01D90323D9
:104C90000BE2574B1B6803F40033002BF0D100E00C
:104CA00000BF7B681B6803F00203002B6FD0504BE2
:104CB0009B6803F00C03002B17D04D4B9B6803F04F
:104CC0000C03082B05D14A4B5B6803F48003002BCF
:104CD0000BD0474B9B6803F00C030C2B1CD1444BAF
:104CE0005B6803F48003002B16D1414B1B6803F073
:104CF0000203002B05D07B68DB68012B01D0012368
:104D0000D3E13B4B1B6823F0F8027B681B69DB0097
:104D1000374913430B603AE07B68DB68002B20D0F7
:104D2000344B01221A60FDF7A1FB386108E0FDF762
:104D30009DFB02463B69D31A022B01D90323B4E140
:104D40002B4B1B6803F00203002BF0D0284B1B6891
:104D500023F0F8027B681B69DB00254913430B60D5
:104D600015E0244B00221A60FDF780FB386108E053
:104D7000FDF77CFB02463B69D31A022B01D90323C2
:104D800093E11B4B1B6803F00203002BF0D17B68FF
:104D90001B6803F00803002B36D07B685B69002B8F
:104DA00016D0154B01221A60FDF760FB386108E050
:104DB000FDF75CFB02463B69D31A022B01D90323A2
:104DC00073E10B4B5B6F03F00203002BF0D01BE091
:104DD000094B00221A60FDF749FB38610EE0FDF730
:104DE00045FB02463B69D31A022B07D903235CE13A
:104DF0000038024000004742800E47428A4B5B6FFA
:104E000003F00203002BEAD17B681B6803F0040364
:104E1000002B00F097800023FB75834B1B6C03F085
:104E20008053002B0FD10023BB607F4B1B6C7E4A4D
:104E300043F0805313647C4B1B6C03F08053BB60C6
:104E4000BB680123FB75794B1B6803F48073002B4F
:104E500018D1764B1B68754A43F480731360FDF7D5
:104E600005FB386108E0FDF701FB02463B69D31AF8
:104E7000022B01D9032318E16C4B1B6803F48073E8
:104E8000002BF0D07B689B68012B06D1664B1B6F13
:104E9000654A43F0010313671CE07B689B68052BA0
:104EA0000CD1614B1B6F604A43F0040313675E4BE8
:104EB0001B6F5D4A43F0010313670BE05A4B1B6FF6
:104EC000594A23F001031367574B1B6F564A23F0CF
:104ED000040313677B689B68002B15D0FDF7C6FAA7
:104EE00038610AE0FDF7C2FA02463B69D31A41F283
:104EF0008832934201D90323D7E04B4B1B6F03F059
:104F00000203002BEED014E0FDF7B0FA38610AE09E
:104F1000FDF7ACFA02463B69D31A41F2883293425C
:104F200001D90323C1E0404B1B6F03F00203002BA8
:104F3000EED1FB7D012B05D13B4B1B6C3A4A23F094
:104F4000805313647B689B69002B00F0AD80364B67
:104F50009B6803F00C03082B60D07B689B69022BD5
:104F600045D1334B00221A60FDF780FA386108E022
:104F7000FDF77CFA02463B69D31A022B01D90323C1
:104F800093E0294B1B6803F00073002BF0D17B6882
:104F9000DA697B681B6A1A437B685B6A9B011A4368
:104FA0007B689B6A5B08013B1B041A437B68DB6AD6
:104FB0001B061A437B681B6B1B071B4913434B6083
:104FC0001B4B01221A60FDF751FA386108E0FDF72A
:104FD0004DFA02463B69D31A022B01D9032364E040
:104FE000114B1B6803F00073002BF0D05CE0104BFA
:104FF00000221A60FDF73AFA386108E0FDF736FA48
:1050000002463B69D31A022B01D903234DE0064B1C
:105010001B6803F00073002BF0D145E07B689B69AF
:10502000012B07D1012340E000380240007000400E
:10503000600047421F4B5B68FB607B689B69012BEC
:1050400030D0FB6803F480027B68DB699A4229D187
:10505000FB6803F03F027B681B6A9A4222D1FA6820
:1050600047F6C07313407A68526A9201934219D18D
:10507000FB6803F440327B689B6A5B08013B1B04BE
:105080009A420FD1FB6803F070627B68DB6A1B06F3
:105090009A4207D1FB6803F0E0427B681B6B1B0759
:1050A0009A4201D0012300E0002318461837BD467C
:1050B00080BD00BF0038024080B582B000AF78608C
:1050C0007B68002B01D1012341E07B6893F83D30E0
:1050D000DBB2002B06D17B68002283F83C20786885
:1050E00000F039F87B68022283F83D207B681A685B
:1050F0007B6804331946104600F0C0F97B68012232
:1051000083F846207B68012283F83E207B680122D9
:1051100083F83F207B68012283F840207B680122CE
:1051200083F841207B68012283F842207B680122BA
:1051300083F843207B68012283F844207B680122A6
:1051400083F845207B68012283F83D200023184620
:105150000837BD4680BD80B483B000AF786000BF23
:105160000C37BD465DF8047B7047000080B485B005
:1051700000AF78607B6893F83D30DBB2012B01D043
:1051800001234EE07B68022283F83D207B681B6888
:10519000DA687B681B6842F00102DA607B681B6892
:1051A000234A934222D07B681B68B3F1804F1DD005
:1051B0007B681B681F4A934218D07B681B681E4A95
:1051C000934213D07B681B681C4A93420ED07B68C5
:1051D0001B681B4A934209D07B681B68194A93429B
:1051E00004D07B681B68184A934211D17B681B6806
:1051F0009B6803F00703FB60FB68062B10D07B68FD
:105200001B681A687B681B6842F001021A6007E09D
:105210007B681B681A687B681B6842F001021A6091
:10522000002318461437BD465DF8047B704700BF65
:10523000000001400004004000080040000C004055
:1052400000040140004001400018004080B584B0D7
:1052500000AF78607B681B68DB68FB607B681B685D
:105260001B69BB60BB6803F00203002B20D0FB6806
:1052700003F00203002B1BD07B681B686FF0020257
:105280001A617B6801221A777B681B689B6903F0AF
:105290000303002B03D0786800F0D2F805E07868AB
:1052A00000F0C4F8786800F0D5F87B6800221A771F
:1052B000BB6803F00403002B20D0FB6803F0040359
:1052C000002B1BD07B681B686FF004021A617B689F
:1052D00002221A777B681B689B6903F44073002BDA
:1052E00003D0786800F0ACF805E0786800F09EF82C
:1052F000786800F0AFF87B6800221A77BB6803F08B
:105300000803002B20D0FB6803F00803002B1BD000
:105310007B681B686FF008021A617B6804221A77A9
:105320007B681B68DB6903F00303002B03D07868FC
:1053300000F086F805E0786800F078F8786800F00A
:1053400089F87B6800221A77BB6803F01003002BF2
:1053500020D0FB6803F01003002B1BD07B681B6878
:105360006FF010021A617B6808221A777B681B684D
:10537000DB6903F44073002B03D0786800F060F819
:1053800005E0786800F052F8786800F063F87B6810
:1053900000221A77BB6803F00103002B0CD0FB68D6
:1053A00003F00103002B07D07B681B686FF001023C
:1053B0001A617868FCF75CFBBB6803F08003002B84
:1053C0000CD0FB6803F08003002B07D07B681B68C0
:1053D0006FF080021A61786800F006F9BB6803F08C
:1053E0004003002B0CD0FB6803F04003002B07D0D8
:1053F0007B681B686FF040021A61786800F034F82F
:10540000BB6803F02003002B0CD0FB6803F02003E3
:10541000002B07D07B681B686FF020021A61786848
:1054200000F0D8F800BF1037BD4680BD80B483B00F
:1054300000AF786000BF0C37BD465DF8047B704755
:1054400080B483B000AF786000BF0C37BD465DF814
:10545000047B704780B483B000AF786000BF0C3726
:10546000BD465DF8047B704780B483B000AF7860C0
:1054700000BF0C37BD465DF8047B704780B485B033
:1054800000AF786039607B681B68FB607B68464AC8
:10549000934213D07B68B3F1804F0FD07B68434AAF
:1054A00093420BD07B68424A934207D07B68414AC3
:1054B000934203D07B68404A934208D1FB6823F0B3
:1054C0007003FB603B685B68FA681343FB607B68B2
:1054D000354A93422BD07B68B3F1804F27D07B684D
:1054E000324A934223D07B68314A93421FD07B6873
:1054F000304A93421BD07B682F4A934217D07B6877
:105500002E4A934213D07B682D4A93420FD07B687A
:105510002C4A93420BD07B682B4A934207D07B687E
:105520002A4A934203D07B68294A934208D1FB68F8
:1055300023F44073FB603B68DB68FA681343FB604D
:10554000FB6823F080023B685B691343FB607B6868
:10555000FA681A603B689A687B68DA623B681A6886
:105560007B689A627B68104A934203D07B68124A38
:10557000934203D13B681A697B681A637B680122F6
:105580005A617B681B6903F00103012B05D17B681D
:105590001B6923F001027B681A6100BF1437BD4606
:1055A0005DF8047B704700BF00000140000400402C
:1055B00000080040000C0040000401400040014091
:1055C000004401400048014000180040001C004019
:1055D0000020004080B483B000AF786000BF0C377B
:1055E000BD465DF8047B704780B483B000AF78603F
:1055F00000BF0C37BD465DF8047B7047024B014687
:10560000186800F025B800BF1804002070B50F4ED0
:105610000C463168054611B900F0FAF930602146B0
:10562000284600F0F5F9431C03D14FF0FF34204623
:1056300070BDC41C24F00304A042F8D0211A2846EF
:1056400000F0E6F90130F2D1EFE700BF700B002067
:105650002DE9F843CD1C25F0030508350C2D38BF86
:105660000C25002D064601DBA94204D90C2333602A
:105670000020BDE8F883DFF8D48000F069F8D8F89E
:1056800000301C4644BB29463046FFF7BFFF431C91
:10569000044658D1D8F800402746002F43D1002CAB
:1056A0004BD023683946304604EB030900F0B0F9CB
:1056B000814542D121686D1A29463046FFF7A6FF81
:1056C00001303AD023682B442360D8F800305A6860
:1056D00062BBC8F800700FE02268521B20D40B2A6E
:1056E00017D96119A342256018BF5960636808BFC4
:1056F000C8F8001062514B60304600F02FF804F1FA
:105700000B00231D20F00700C21A1CBF1B1AA35058
:10571000AFE76268A3420CBFC8F800205A60EBE70D
:1057200023466468AEE73C467F68B6E71A465B6886
:10573000A342FBD100235360DEE70C2333603046E5
:1057400000F00CF894E70560D6E700BF740B00206A
:10575000014800F0AAB900BFB80C0020014800F0D1
:10576000A5B900BFB80C0020002310B50446C0E95D
:105770000033C0E90433836081814366C281836161
:10578000194608225C3000F006F90D4B63620D4BA0
:10579000A3620D4BE3620D4B23630D4B24629C42CD
:1057A00006D003F16802944202D0D0339C4205D166
:1057B00004F15800BDE8104000F076B910BD00BFFC
:1057C00011590008335900086B5900088F59000817
:1057D000780B0020024A0349034800F069B800BF73
:1057E0000C040020ED6100081C04002041680C4BF3
:1057F000994210B5044601D000F0F8FCA168094BAD
:10580000994202D0204600F0F1FCE168064B994233
:1058100004D02046BDE8104000F0E8BC10BD00BF39
:10582000780B0020E00B0020480C002010B50B4B3B
:105830000B4C0C4A1A60204600220421FFF794FF0B
:1058400004F1680001220921FFF78EFF04F1D00066
:105850000222BDE810401221FFF786BFB00C0020E5
:10586000780B0020D5570008014800F01EB900BF92
:10587000B90C0020014800F019B900BFB90C002094
:1058800010B50446FFF7F0FF236A1BB1BDE81040D6
:10589000FFF7F0BF044B2362044B1B68002BF5D1CC
:1058A000FFF7C4FFF2E700BFED570008B00C00207F
:1058B0002DE9F8430746884614460026D4E90195A9
:1058C000B9F1010905D52468002CF7D13046BDE8AF
:1058D000F883AB89012B07D9B5F90E30013303D01A
:1058E00029463846C04706436835E9E70FB407B58F
:1058F000064904AB086853F8042B8168019300F053
:105900004BF903B05DF804EB04B0704718040020B5
:1059100010B50C46B1F90E1000F068F80028ABBFC6
:10592000636DA3891B1823F48053ACBF6365A38107
:1059300010BD2DE9F0411F468B89DB0505460C465D
:10594000164605D5B1F90E100223002200F03CF8EE
:10595000A389B4F90E1023F48053A38132463B4649
:105960002846BDE8F04100F063B810B50C46B1F927
:105970000E1000F029F8431CA38915BF606523F4BD
:10598000805343F48053A38118BFA38110BDB1F9A4
:105990000E1000F009B802440346934200D170474C
:1059A00003F8011BF9E7000038B5064D0023044653
:1059B00008462B60FCF77DFC431C02D12B6803B129
:1059C000236038BDB40C002038B5074D04460846A6
:1059D000114600222A601A46FCF792FC431C02D1B1
:1059E0002B6803B1236038BDB40C002038B5074DD7
:1059F00004460846114600222A601A46FCF720FC9D
:105A0000431C02D12B6803B1236038BDB40C0020C5
:105A100038B5064D0023044608462B60FCF77EFC93
:105A2000431C02D12B6803B1236038BDB40C0020A5
:105A300038B5074D04460846114600222A601A462A
:105A4000FCF71BFC431C02D12B6803B1236038BD5B
:105A5000B40C0020014B1868704700BF18040020E8
:105A600070B50D4D0D4C641BA4100026A64209D143
:105A70000B4D0C4C01F05AFA641BA4100026A642F0
:105A800005D170BD55F8043B98470136EEE755F84F
:105A9000043B98470136F2E7A0730008A0730008A2
:105AA000A0730008A4730008704770477047000097
:105AB00038B50546002941D051F8043C0C1F002B95
:105AC000B8BFE418FFF744FE1D4A136833B963609A
:105AD00014602846BDE83840FFF740BEA34208D90D
