:020000040800F2
:10000000503000205D02000809330008313100083B
:1000100005330008ED0600089964000800000000A0
:100020000000000000000000000000001D33000878
:1000300009070008000000001933000821330008F8
:1000400077020008770200087702000877020008AC
:10005000770200087702000877020008770200089C
:10006000770200087702000877020008F10600080E
:100070007702000877020008FD06000877020008F2
:10008000770200087702000877020008770200086C
:10009000770200087702000877020008770200085C
:1000A000770200087702000877020008770200084C
:1000B000770200087702000877020008770200083C
:1000C000770200087702000877020008770200082C
:1000D000770200087702000877020008770200081C
:1000E000770200087702000877020008770200080C
:1000F00077020008770200087702000877020008FC
:1001000077020008770200087702000877020008EB
:1001100077020008770200087702000877020008DB
:1001200077020008770200087702000877020008CB
:1001300077020008770200087702000877020008BB
:100140007702000877020008770200080D330008E4
:10015000770200087702000877020008770200089B
:10016000770200087702000877020008770200088B
:1001700077020008770200087702000800000000FC
:10018000770200087702000800F002F800F056F845
:1001900014A696E8000CB244B344DA4501D100F04D
:1001A0004DF8BAE80F000FA696E83000A5EB04055D
:1001B00004EB0607AAEB0704A7F101074FEA1515A0
:1001C0004FEA3414A4F10104AC4201D300F036F834
:1001D00013F0010F18BFFB1A43F0010300F001F800
:1001E000DBE7184780660000A0660000103A24BFD5
:1001F00078C878C1FAD8520724BF30C830C144BF8C
:1002000004680C6070470000704700000023002461
:1002100000250026103A28BF78C1FBD8520728BF16
:1002200030C148BF0B6070471FB506F0FCFA9DE86F
:10023000030000F04FF91FBD10B510BD00F0D3F959
:100240001146FFF7F1FF06F029F900F0F1F903B4C8
:10025000FFF7F2FF03BC00F021FA000009488047D5
:1002600009480047FEE7FEE7FEE7FEE7FEE7FEE798
:10027000FEE7FEE7FEE7FEE704480549054A064BB0
:1002800070470000D133000889010008502A00207F
:1002900050300020502C0020502C002070B5A0FBC6
:1002A0000140B4F1805170F1000024BF002070BD06
:1002B000204600F03EF905001CBF214600F0A1F8E1
:1002C000284670BD70B50446051F00F0E7F80068C9
:1002D000002C14BF446870BD002C18BFAC423CBF5A
:1002E00020466468F8D301680A18AA4218BF45601E
:1002F00003D12A6805461144016028684119A142CA
:100300001CBF6C6070BD616869602168084428602A
:1003100070BD53EA020C00F069802DE9F04B4FF0FC
:100320000006002B1FBFB3FA83F503FA05F424FA85
:1003300005F65E4012BF1643B2FA82F502FA05F4E2
:10034000C5F120051EBF22FA05FC44EA0C04203545
:1003500056EA044C4FEA144418BF641C4FF00008DE
:100360004FF00009904271EB030C39D3002919BFFB
:10037000B1FA81F701FA07F6B0FA80F700FA07F64A
:10038000C7F120071EBF20FA07FC46EA0C062037FB
:10039000B6FBF4FCA7EB0507103F07F01F0BCBF1F2
:1003A00020062CFA06F60CFA0BFB44BFB3460026D7
:1003B000202FA4BF5E464FF0000B5BEA060C08BF7F
:1003C0004FF0010B19EB0B0948EB0608ABFB027C65
:1003D00006FB02CC0BFB03CCC01B71EB0C01C1E78D
:1003E0000B46024641464846BDE8F08B13B508432C
:1003F00018BF4FF0FF300146AFF30080BDE81C404E
:1004000070474FF000020429C0F0128010F0030C76
:1004100000F01B80CCF1040CBCF1020F18BF00F8F7
:10042000012BA8BF20F8022BA1EB0C0100F00DB8A6
:100430005FEAC17C24BF00F8012B00F8012B48BF04
:1004400000F8012B70474FF0000200B513469446A8
:100450009646203922BFA0E80C50A0E80C50B1F11C
:100460002001BFF4F7AF090728BFA0E80C5048BF30
:100470000CC05DF804EB890028BF40F8042B08BFCE
:10048000704748BF20F8022B11F0804F18BF00F8CA
:10049000012B704770477047704700000048704755
:1004A00038000020704770477047704738B50446E1
:1004B0000A4600206946AFF30080002808BF38BD17
:1004C00002460099204600F06DF8012038BD012059
:1004D00000F082B8F8B5AFF30080054600200C4666
:1004E0000C2000BF0646A819A0420DD93246694625
:1004F0000020AFF30080070008BF00F06DF80098FF
:10050000A04218BF0546C419FFF7C8FF056007469B
:10051000F01D20F007004619284600F03DF8B442CF
:1005200008BFF8BDA21B31463868BDE8F84000F0AE
:1005300039B870B50646FFF7B1FF056806F10B0044
:1005400020F00704B4429CBF002070BD2B466A68AF
:10055000BAB11068A04210D304F1080188423CBF30
:100560005068586007D35168101941601168091B21
:10057000016058601460101D70BD13465268002A57
:10058000E7D121462846FFF791FF0028DED170BD54
:100590000048704730000020002101604160704732
:1005A0000C207047034640688C46002818BF8842DC
:1005B0003CBF03464068F8D318681844884207D007
:1005C0000CF1030020F00700001D411A521A0146E9
:1005D000081D0A60FFF776BE10B500F037F8BDE8D9
:1005E000104000F02EB87546FFF7D2FFAE4605006A
:1005F0006946534620F00700854618B020B5FFF73E
:100600003BFEBDE820404FF000064FF000074FF0E2
:1006100000084FF0000BAC46ACE8C009ACE8C009DC
:10062000ACE8C009ACE8C00921F007018D4670476D
:1006300010B50446AFF300802046BDE81040FFF738
:1006400006BE002801D000F029B8704710B5012877
:1006500005D0002103A000F028F8012010BD09A159
:10066000F8E7000053494752544D454D3A204F7525
:1006700074206F662068656170206D656D6F72799A
:10068000000000003A2048656170206D656D6F7252
:100690007920636F72727570746564000149182067
:1006A000ABBEFEE726000200704770B505460C465B
:1006B0000A2000E06D1C00F011F835B12878002800
:1006C000F8D102E0641C00F009F814B12078002889
:1006D000F8D1BDE870400A20AFF3008008B5694644
:1006E0008DF800000320ABBE08BD0000FEE700004F
:1006F00040F22850C2F2000000F0CCB840F2C840EE
:10070000C2F2000000F0C6B87047000072B600BF29
:10071000FEE7000000284FF0010318BF002901D1B7
:10072000184670474379012B4FF00203F8D010B5FB
:100730000371036802F0100ED3F800C0D1E9001471
:1007400040F6FE7202FA0EF221432CEA020201FA8E
:100750000EF111431960C0211A6801FA0EF122EA64
:10076000010119600121002301714371BDE81040AE
:1007700018467047002804BF0120704710B5044692
:10078000007920B900206071204600F007F80220AF
:100790002071002001212061217110BD80B586B03B
:1007A00047F200410068C4F200010022884205922D
:1007B000049201D006B080BD43F630000092C4F22E
:1007C0000200036943F000530361036903F000531F
:1007D0000093009B0092036843F0010303600068EC
:1007E00000F0010000900098202001900320CDE946
:1007F000020201F5C63001A900F044FA06B080BD3E
:1008000081B04FF0000CCDF800C068B1006800293D
:1008100000900098104414BF1430083000900098E5
:100820000360002001B07047012001B07047000054
:10083000002804BF012070474279012A4FF00202CC
:1008400026D010B50271026801F0100E4FF0010CB5
:1008500014680CFA0EF323431360D2F800C049B1B8
:100860003C230CF4701103FA0EF399420AD10221D1
:1008700005E000BF0CF03C013C2903D10121536885
:10088000194351600121002201714271BDE81040FD
:1008900010467047F0B581B004460020009040F249
:1008A0002800C2F200000268D4E9166048F2B513CD
:1008B00037680821C1F64E3381403942A2FB032537
:1008C0000CD0226813685B0708D5136823F0040373
:1008D0001360B160616D41F00101616501218140EA
:1008E000394208D022685269120604D5B160616DA0
:1008F00041F00201616504218140394208D022683B
:100900001268920704D5B160616D41F00401616520
:1009100010218140394217D020680268120713D590
:10092000B16002680168520308D4C90508D401689F
:1009300021F008010160216C21B905E008033FD4D2
:10094000216C09B120468847E16D202000FA01F2B0
:100950003A4241D020680368DB063DD5B26094F886
:1009600035300268052B1BD122F016020260426965
:1009700022F080024261226C0AB9A26C1AB10268AC
:1009800022F0080202603F208840B060012084F815
:100990003500216D0020002984F8340052D157E041
:1009A0000168520310D4C90512D4016821F0100166
:1009B0000160012084F83500002084F8340007E04D
:1009C000A16C0029BED1BFE7080301D4616C00E02F
:1009D000E16B09B120468847606DC8B3606DC00700
:1009E0002ED0052084F835002068A90A026822F07C
:1009F00001020260009A01328A4200921AD802680B
:100A0000D20717D0009A01328A42009212D80268A7
:100A1000D2070FD0009A01328A4200920AD80268A7
:100A2000D20707D0009A01328A42009202D80268A7
:100A3000D207DFD1012084F83500002084F834008B
:100A4000E16C29B1204601B0BDE8F040084700BF85
:100A500001B0F0BD2DE9F041044600F0F1F9ECB130
:100A60000546022084F835000020216884F834000F
:100A7000086820F00100086021680868C00711D0EC
:100A800000F0DEF9401B0528F6D9032520230320BA
:100A9000636584F83550BDE8F08100BF0120BDE8F2
:100AA000F08100BF086848F23F02CFF21002D4E99B
:100AB000013500EA020C04F10C0898E8C10143EA90
:100AC0000C032B431843D4E9072E3043384310431B
:100AD000626A40EA0E00042A40EA08031CD1206B37
:100AE000D4E90A2E40EA0E00184308604869BEF1B6
:100AF000000F20F0030040EA020040F0040C11D087
:100B0000B8F5005F36D0B8F1000F45D1022A46D0C3
:100B1000012A3BD032B942E00B60486920F007005F
:100B200040EA020C01F0F8004AF6AB221038CAF68F
:100B3000AA22A0FB02231A0946F65803C1F814C0E2
:100B4000C0F600039A5C40F2FF335F284FF03F008D
:100B500021EA030100FA02F088BF0431C4E9161249
:100B60008860002301250020636584F83550BDE8C6
:100B7000F08100BF032AD5D8012540230120DFE8FA
:100B800002F0030E030500BF82E700BFAEF1C070A4
:100B9000B0FA80F0400904E0032A04D3C2D1CEF3B6
:100BA00000600028BED0012540230120636584F841
:100BB0003550BDE8F081000090F834C0BCF1010F61
:100BC00004BF0220704770B54FF0010C80F834C0AC
:100BD000D0F858E090F835C0BCF1010F38D14FF093
:100BE000020C80F835C04FF0000CC0F854C0D0F8AB
:100BF00000C08468056CC06DDCF80060402C26F4F1
:100C00008026CCF80060CCF804300B4604BF1346B5
:100C10000A463F2101FA00F0CCF80830CCF80C204D
:100C2000CEF80800DCF8000040F01600CCF8000018
:100C30002DB1DCF8000040F00800CCF80000DCF832
:100C4000000040F00100CCF80000002070BD00BFA3
:100C5000002180F83410022070BD0000B0B50446B9
:100C600000F0EEF8054640F20000C2F20000007805
:100C7000611C18BF044400BF00F0E2F8401BA04212
:100C8000FAD3B0BD2DE9F04F82B000F13E4707F135
:100C9000FF77860546EA972741F60046C4F202062A
:100CA000082243F6004EB04208BF0722C4F2010EEC
:100CB000072F38BF3A46002600274FF00008009261
:100CC00009E000BF08F101080237B8F1100F06F182
:100CD000040600F0A3800D68012202FA08F415EA68
:100CE0000409EFD0D1F804B003220BF0030CACF1EF
:100CF0000105BA40012D6FEA020A0FD88268CD685B
:100D000002EA0A02BD402A4382604268A243CBF352
:100D1000001404FA08F42243426005E0BCF1030F1A
:100D200002D14FF0030C1EE0C2688C6802EA0A028E
:100D3000BC402243BCF1020FC26014D16FF0030229
:100D400002EA58020244D2F820C006F01C040F2325
:100D50000D69A3402CEA0303A5402B431362D1F88D
:100D600004B00BF0030C02680CFA07F302EA0A0263
:100D70001A431BF4403F0260A4D0002243F6440310
:100D80000192C4F202031A684FF6084C42F4804202
:100D90001A601A68CFF6FF7C02F480420192019A31
:100DA00028F00302724452F80C3006F00C050F24B0
:100DB000AC40A343009C04FA05F52B4342F80C30E9
:100DC000DEF808204B6842EA090543F60C4CDC02C9
:100DD00058BF22EA0905CEF80850C4F2010CDCF82D
:100DE00000209C0242EA090558BF22EA0905CCF816
:100DF0000050DEF804209C0342EA090558BF22EAAD
:100E00000905CEF80450DEF80020DB0342EA0905AC
:100E100058BF22EA0905CEF8005053E702B0BDE8FA
:100E2000F08F0000426902EA0103914341EA034165
:100E300081617047002A08BF090481617047000082
:100E400042F64C20C2F2000000687047D0F8DC0384
:100E500003F01EBAD0F8DC0303F026BA006803F0F2
:100E6000EBBF0000006803F0EBBF0000C1EB011115
:100E700000EB810090F84C0070470000C1EB0111BD
:100E800000EB8100806B704710B5044690F8D403E6
:100E9000012804BF022010BD2068012284F8D42359
:100EA00003F0DEFF002084F8D40310BD2DE9F04FDD
:100EB00083B0044690F8D403012803D1022003B084
:100EC000BDE8F08F012084F8D403C1EB01100F4678
:100ED00004EB800102F07F008875D009DDE90CBACF
:100EE000C87520680E9D4FF000099846164681F897
:100EF00019900B754F7581F826A0A1F81A90A1F8EA
:100F0000249003F09DFFBAF1010F0AD1BC2D2946B0
:100F100028BFBC21002818BF2946BBF1010F08BF1C
:100F20000D46C7EB071004EB8001206881F818B06C
:100F30000D85394632464346CDE900BA029504F0A4
:100F40003BF884F8D49303B0BDE8F08F70470000FD
:100F50002DE9F0438C46DDE90775CCEB0C16DDE995
:100F6000099100EB860E8EF81720002F8EF82630A0
:100F700006BF8EF8191003260226714601F82A6F63
:100F8000032B4FF0000818D80026DFE803F0071500
:100F9000030300BF52B19EF83C2009E0012F0CD1A1
:100FA000E2B19EF81A20012AF5D006E09EF83D2015
:100FB000002A18BF012256000E70036882790EF1D4
:100FC0001401CEF82C50AEF84C80CEE90D9818469E
:100FD0008EF815C0BDE8F04304F084B8B9F1000FF5
:100FE0000EF13D0204D01278002A18BF0226E3E772
:100FF000012313700226DFE72DE9F04F85B0D0F80A
:1010000000800446404603F027FF012840F08F840B
:10101000206804F077FB002800F08984206804F041
:1010200071FB01462068890244BF4FF40011416101
:1010300004F068FB01462068C90244BF4FF48011E8
:10104000416104F05FFB01462068490144BF4FF055
:101050008061416104F056FB01462068890744BF66
:101060000221416104F04EFB01462068890018D539
:101070004FF000514161D8F84014C90711D14046E2
:10108000102103F079FE404603F016FE607A022834
:1010900003D12068012104F00DFB2046FFF7DAFEA2
:1010A000206804F02FFB2668C0011CD5D6F8400448
:1010B0000490D6F840040390039820F02E0003908B
:1010C0000498800700F1DA830498000700F1E483B4
:1010D0000498800603D5039840F0200003900398FD
:1010E000C6F840042668304604F00CFB000701D423
:1010F000206805E0204600F0CBFC20680821416113
:1011000004F000FB01462068890140F18B8303F065
:10111000E5FF61790290002900F080834FF4A0651B
:101120004FF000094FF0000BCDF8048013E000BF32
:10113000A8194FF400718160206800BF514603F088
:101140008FFE60790BF1010B09F13C09834505F134
:10115000200580F0638302990BF00F0021FA00F064
:10116000C007EED058F8057026685FFA8BFA304653
:10117000514604F0BFFA39044FEA407066D40028A3
:1011800000F182802068514604F0B4FA800600F134
:1011900089802068514604F0ADFA8005C8D42068E3
:1011A000514604F0A7FAC00740F0AE8020685146CF
:1011B00004F0A0FA400600F1B3812068514604F023
:1011C00099FA000700F1DC812068514604F092FA98
:1011D000C00600F1DD812068514604F08BFA00065C
:1011E00000F17A822068514604F084FA400500F14B
:1011F00087822068514604F07DFA8007A1D5A9199D
:101200000220886004EB090090F84D20013A082A7A
:1012100097D8DFE812F09B020900B702C302D5029B
:10122000DB020B0009000B008BE700BF426C0223BE
:101230000132032A80F84D304264C0F0CF82002191
:101240000422416480F84C201CE200BF002825D411
:101250002068514604F04EFAC0054DD4206851462E
:1012600004F048FA00074BD42068514604F042FAD3
:10127000400569D42068514604F03CFA000671D557
:101280000721802064E000BFA81904218160206844
:1012900004EB0901072281F84D204FE707210420C4
:1012A00056E000BFA8192021816004EB0906707E7A
:1012B000012809D100207076206840F20231A6F89A
:1012C0004C10514603F0CCFDB07E01287FF439AFBD
:1012D000F07E00287FF435AF96F826000321012820
:1012E0001CBF0120F076206886F84D10514603F0AF
:1012F000B7FD0020706424E708214FF4807027E0D8
:101300000621082024E000BF04EB09082068002122
:10131000C8F84410514604F0EDF9400605D5012007
:1013200088F81900A8194021816098F81B0000284E
:1013300000F01A81002088F81B00A819416821F4E8
:101340008031416011E100BF09214FF4806000BF8E
:10135000AA19906004EB0902206882F84D105146EA
:1013600003F07EFD2068514604F0C4F90146206870
:10137000890537D4514604F0BDF9C0073AD1206839
:10138000514604F0B7F9800600F17A802068514692
:1013900004F0B0F9800700F19B802068514604F00A
:1013A000A9F9400600F1D0802068514604F0A2F966
:1013B000C0067FF5C6AE04EB090898F826000028A1
:1013C00018BF022840F06481A07900284FF0000087
:1013D000C8F8440000F0618198F81B00012800F073
:1013E0005C8161E1514603F03BFDA8194FF40071A7
:1013F0008160A6E605EB06082020C8F8080004EB8B
:101400000906F07E012807D10020F076D8F8040004
:1014100020F48030C8F80400A07930B1306BD8F8DF
:1014200010106FF3DF41401AB0630121002086F8ED
:101430004D107064C8F8081096F8260003280AD8E2
:10144000DFE800F0022C022C2068514603F008FD72
:101450001020C8F80800A079012830D1B06B318D78
:10146000DDF8048008440138B0FBF1F0C0073FF418
:1014700068AE96F83C0080F0010086F83C0060E61B
:10148000A8192021816004EB0901887E01287FF4DE
:1014900058AE0120C87620680322FCE6D8F8000088
:1014A000514640F00050C8F80000012086F84C007A
:1014B00020460122FFF74AFDA0790128CED096F8F8
:1014C0003C00DDF8048080F0010086F83C0038E63E
:1014D000A9190220886004EB090090F84D20013A18
:1014E000082A00F2CD80DFE802F069056F8B91AF2A
:1014F00007B5070025E600BF426C02230132032A2C
:1015000080F84D304264C0F0AF80827E012A4FF0F7
:101510000002426440F0A480A0F81B208EE000BFCF
:1015200004EB0901887E002200284FF0050081F8B5
:101530004D0004BF0120487620684A64514603F0FC
:101540008FFCA819402153E7A8194021816004EBC2
:101550000900817E00294FF0050180F84D1004BF7D
:10156000002141642068E9E5A81901218160206813
:1015700088F84D10514603F073FCDDF80480E0E577
:10158000A81908218160206804EB0901062282E67F
:1015900004EB0900417E002200294FF0040142645F
:1015A00080F84D1004D1017E002904BF012141764D
:1015B0002068514603F054FCA8198AE0022180F803
:1015C0004D1001214DE000BFC27E0223012A80F8A8
:1015D0004D3055D180F84C304A6842F480324A6030
:1015E000CA6842F04002CA60CA6822F02002CA609B
:1015F00090F8262042F00202022A3DD040E000BFCF
:1016000090F82620022380F84D302FE0C27E02237E
:10161000012A80F84D3033D190F82620032A25D1B5
:10162000826C0132032A8264C0F08C80426C0023F9
:101630008364022AC3769CBF012202774A6822F49F
:1016400080324A600CE000BF022180F84D10052175
:1016500007E000BF416C0222013180F84D20416457
:10166000042180F84C100BE090F8262042F0020292
:10167000022A80F84C3003D10A6863F39F720A6033
:1016800090F84C2020465146FFF760FC59E500BF1A
:10169000032809D10020C8F844002068042188F8F4
:1016A0004D10514603F0DCFB98F81B0001280DD1CA
:1016B000002088F81B00A819416821F4803141609E
:1016C000C16841F02001C16001E000BFA819DDF848
:1016D000048010218CE600BFA079F8B104EB09006A
:1016E000416C01310329416422D30021416404216A
:1016F00080F84C10204651460422FFF727FC1EE0DC
:1017000004EB09012068092281F84D20514603F0BD
:10171000A7FBA8194FF480616AE600BF04EB09013A
:101720002068072281F84D20514603F099FB06E01E
:10173000022180F84C10A85961F39F70A851A81994
:10174000802155E680F84C309AE700BF022180F8EE
:101750004D1090F82610012201F0FE01022980F8B8
:101760004C207FF48FAFA17901293FD0002951D1BE
:1017700090F83D10DDF8048081F0010180F83D1003
:1017800080E700BFC17E01294FF0020180F84D10B3
:101790007FF476AF022280F84C2073E7C37E0222EA
:1017A000012B80F84D2080F84C207FF46BAF002295
:1017B000C2764868022220F48030486062E700BFA9
:1017C000022280F84D2080F84C205BE702210522A0
:1017D00080F84D1080F84C2054E700BF022280F8BA
:1017E0004C20086862F39F7008604BE7416B89B139
:1017F000028D11440139B1FBF2F1C90705D090F80F
:101800003D1081F0010180F83D10DDF804800122D7
:1018100038E700BFDDF8048034E700BF20684FF0F0
:101820000071416103F06EFFC00640F180802568C1
:10183000A86920F01000A861286A00F4F011B1F541
:10184000802F6FD1C0F30A16002E6BD000F00F0866
:10185000C8EB081004EB80094F4657F82C1F0029ED
:1018600060D0CA465AF8380F5AF8042C30449042D7
:1018700032D9042089F84C0054E000BF0498C00716
:1018800002D02046FFF7E2FA039840F002000390EE
:10189000049800077FF51CAC039840F00800039003
:1018A0000498400708D4204600F0E6F80498800623
:1018B0003FF511ACFFF713BC607A02283AD10498C7
:1018C00000F4C0212068B1F5802F14BF012102214E
:1018D00003F0F0FE35E000BF2846324603F016FF65
:1018E0003868DAF80010304438608819CAF8000007
:1018F00005EB4810D0F81015B9F82820964211D100
:101900000022C1F6F87211400CD000F5A060016809
:10191000022262F39F71016099F83C0080F001009F
:1019200089F83C002068816941F01001816105B0AF
:10193000BDE8F08FE079012804BF4EF66020C6F8BC
:101940000404204600F09CF8049880063FF5C3ABE1
:10195000FFF7C5BBB0B582B0F0B10446056890F89A
:10196000D50328B9002084F8D403204600F038F8C5
:101970000320B5F1A04F84F8D50304BF0020A07167
:10198000206803F063F994E80F00257C009503F0CC
:1019900053F828B1012509E00125284602B0B0BD61
:1019A00020680121012503F027FF28B1022184F8D6
:1019B000D513284602B0B0BD94E80F0094F810C0CB
:1019C000CDF800C003F00AFD00281CBF022501204D
:1019D0002946054684F8D513284602B0B0BD00005C
:1019E000F0B587B000680026B0F1A04F06960596C6
:1019F00002D007B0F0BD00BF43F630070196C4F235
:101A000002073868002440F0010038603868C4F2EA
:101A1000020400F00100019001984FF4007002AD43
:101A2000CDE90206204629460496FFF72BF94FF42C
:101A3000E05002900220CDE903060A2006902046DD
:101A400029460596FFF71EF97868002140F08000CE
:101A5000786001967869002240F480407861786966
:101A600000F4804001900198432000F05FFD432086
:101A700000F04AFD07B0F0BDD0F8DC0302F0A2BCD4
:101A8000D0F8DC0302F0A2BC006803F095BE0000B1
:101A9000D0F8DC0302F040BC10B5044690F8D40343
:101AA000012804BF022010BD2068012184F8D4134E
:101AB00003F0D4F8206803F0F7F8002084F8D4038A
:101AC00010BD000010B5044690F8D403012804BFEF
:101AD000022010BD2068012184F8D41304F040F8DE
:101AE000002084F8D40310BD002804BF01207047F3
:101AF000F0B581B0044690F83D0028B9002084F884
:101B00003C00204600F0A2F8242084F83D00206824
:101B1000016821F001010160016841F400410160A8
:101B2000016821F40041016000F0C0FE636848F2E2
:101B3000A16CC0F2010C40F60011C0F23D016345FA
:101B40003CBF48F28041C0F21E01884202D201200F
:101B500001B0F0BD4DF68361C4F21B31A0FB011250
:101B60002168970CD1F804E04FF496762EF03F05EB
:101B700045EA92454D60774348F638160D6AC0F243
:101B80004106A7FB067625F03F07634538BF960C54
:101B9000721C3A430A62CA6948F2A0664CF6FF77A3
:101BA000C0F20106B34222EA07020BD801385B00FB
:101BB000B0FBF3F001306FF31F30042898BF04200E
:101BC0001BE000BFA768013857B119277B43B0FB62
:101BD000F3F001306FF31F3070B100F5804007E083
:101BE00003EB4303B0FBF3F001306FF31F3018B188
:101BF00000F5004001E000BF01201043C861086803
:101C0000D4E9072320F0C000104318430860886817
:101C100048F2FF3204F10C0790438CCF1843104375
:101C2000A6698860C86820F0FF0038433043C86068
:101C3000086840F00100086000202021206484F83A
:101C40003D10206384F83E0001B0F0BD016845F20C
:101C50000040C4F20000814218BF7047B0B586B0A2
:101C6000002443F630050194C4F20205296800F50A
:101C7000D83041F002012960296801F00201019188
:101C800001994FF410710191122102910121CDE9C6
:101C900003140421059101A9FEF7F4FF00942869BB
:101CA00040F400102861286900F4001000900098AA
:101CB00006B0BDE8B04070472DE9F04186B004465B
:101CC000006844F20C05816843F20448C4F2000540
:101CD000C4F20008059108F57F77291FB84208BFB4
:101CE00008F10401096808F5406604914168B842AA
:101CF0000391314604BF43F20441C4F200010A6873
:101D00000292626842F40072B2F5007F4CD10599EC
:101D1000890744BF03995FEA01617BD40498C00737
:101D200021D0029840061ED52068E16AB84208BF5B
:101D300008F108052A6821F8022BE162618E013959
:101D40006186618E79B9B842304608BF4046016865
:101D500021F060010160608D28B9012084F8410004
:101D6000204600F0E5F80498400644BF02985FEA78
:101D700080606BD40598000744BF03985FEA8060D9
:101D800044D520684168B84221F0A001416008BFF5
:101D90004646316821F06001316000210191806880
:101DA00001900198B6E000BF049A920744BF029ADE
:101DB0005FEA02626AD40598C00719D0039840060A
:101DC00016D52068E16AC26821F8022BE162618EB3
:101DD00001396186618E59B9416821F06001416025
:101DE000608D28B9012084F84100204600F0A0F859
:101DF0000598400644BF03985FEA806066D4049863
:101E0000000744BF02985FEA806077D406B0BDE85F
:101E1000F08100BF616A31F8022B6162C260618D9E
:101E200001396185618D00297FF478AF416821F027
:101E3000A0014160608E00287FF470AF012084F81B
:101E40004100204600F074F868E700BF2068314682
:101E5000B84208BF41460A6822F060020A60416841
:101E600021F0A001416000210191C16801918068C9
:101E700001900198012084F84100606C40F002005C
:101E80006064204600F056F874E700BF626AB8420A
:101E900032F8023B626208BF08F108052B60608DD2
:101EA00001386085608D00287FF485AF086820F0D8
:101EB000A0000860608E00287FF47DAF012084F8C8
:101EC0004100204600F034F875E700BF2068416803
:101ED000B84221F060014160304608BF40460168C9
:101EE00021F0A0010160012084F84100606C40F005
:101EF00002006064204600F01DF880E72068B842C8
:101F000008BF4646316821F0A0013160416821F0E8
:101F100060014160012084F84100606C40F00401E0
:101F20002046616406B0BDE8F04100F003B800004F
:101F30007047000070470000002804BF0120704770
:101F40002DE9F041044690F8410050B9002084F892
:101F5000400043F28510C0F600006063204600F0A8
:101F6000A5F8022184F8411020686269C36940F62F
:101F7000BF76B343022AC361016203D12169022201
:101F800044E000BFD4E90206002521284FF00100FB
:101F900038BF012500F006FB2169B1F5007F07D1AC
:101FA000E368626963B10723002E08BF06230BE0D4
:101FB0000522002E08BF04222A44D040626905E0B1
:101FC0000823002E08BF07232B44D84000EB8000D5
:101FD0004000B0FBF2F04CF6CD420530CCF6CC42DE
:101FE000A0FB02206FF0FF0202EB101212F1FE0FB5
:101FF00006D2606C40F0100060640120BDE8F08102
:10200000020900F00803206842EA4312114301620A
:10201000C16940F6BF7CD4E9015821EA0C06E268A8
:1020200046EA0806A36916432E431E4346F400669B
:10203000C661266A012E31D141F6B94643F21C4EE3
:10204000C0F60006C4F2000E66630EF579760EF552
:102050004067B04204BF43F21C47C4F2000739682E
:10206000B04221EA0C01396044F22001C4F20001BF
:102070004FF0020008BF0EF10401086038686FF4E9
:1020800000714FF400660D4208BF4FF410663043F4
:1020900040EA08001043184380B238600020012154
:1020A000606484F84110BDE8F08100002DE9F04340
:1020B00087B00446006843F60041C4F200010027DF
:1020C0008842CDE90577CDE90377029762D043F6E0
:1020D0000001C4F20001884240F0C38043F63000A2
:1020E0000197C4F20200016940F6000541F4804105
:1020F00001610169C4F2020501F480410191019975
:102100000197016802AE41F00401016001684FF0DF
:10211000020801F00401019101990197016841F061
:10212000020101600068314600F002000190019850
:1021300004200290062006902846CDE903870597E3
:10214000FEF7A0FD4FF43040CDE9020805200690CF
:10215000A5F580603146CDE90477FEF793FD46F2A0
:102160001000C4F2020040F2C8454830C2F2000537
:102170004FF48061C5E9000705F110004FF480526B
:102180004FF480434FF48076C5E902774EC04FF498
:1021900000305BE043F630000197C4F202000169B1
:1021A00040F6000541F4004101610169C4F20205F5
:1021B00001F40041019101990197016802AE41F0DB
:1021C0000101016001684FF0020801F00101019175
:1021D0000199019701684FF0060941F0040101607F
:1021E0000068314600F00400019001981020029030
:1021F000A5F50060CDE903870597CDF81890FEF7A7
:1022000041FD4FF4A450CDE9020828463146CDE9FE
:102210000477CDF81890FEF735FD40F2285546F2C8
:102220001000C2F20005C4F202004FF48061C5E95B
:10223000000705F110004FF400624FF400534FF413
:1022400080764EC04FF44030C5E90277C5E90807F3
:102250002846FEF7FFFB002818BFFEF757FAE56394
:10226000AC6307B0BDE8F08310B582B00446002926
:102270004FF0010018BF002A02D102B010BD00BF0C
:1022800094F84100012803D194F84000012803D1BB
:10229000022002B010BD00BF012084F840000420DD
:1022A00084F84100002060648C462168C4F82CC08A
:1022B000C86900F00700052804D0032808BF5200B1
:1022C00001E000BF520022866286E06B43F27D127D
:1022D00043F25913C0F60002C0F60003C0E90F3202
:1022E00043F23512C0F60002C264CA6902F44072B9
:1022F000B2F5407F06D100220192CA6801928A6835
:102300000192019A238E0C316246FEF755FC58B1BA
:10231000606C002140F008006064012084F84100F6
:1023200084F8401002B010BD002084F840002068FE
:102330004168C90703D1416841F001014160C169A9
:10234000490503D4C16941F48061C161002002B034
:1023500010BD0000B0B540F600440546C4F20204CA
:102360000068A4F5EA3188421DD141F64C20C2F242
:102370000000D0F8000C4FF40001A1EB2020C10AAE
:1023800040F6FF73994238BFC30A40F29000C2F290
:10239000000010210022FEF733FA20464FF480415E
:1023A000FEF740FD2868A4F5E831884218BFB0BDAB
:1023B00020464FF48051BDE8B040FEF733BD000029
:1023C000B0B540F600440546C4F202040068A4F526
:1023D000EA3188421DD141F64C20C2F20000D0F80B
:1023E00000044FF40001A1EB2020C10A40F6FF7366
:1023F000994238BFC30A40F29000C2F20000102197
:102400000022FEF7FDF920464FF48041FEF70AFD59
:102410002868A4F5E831884218BFB0BD20464FF4C3
:102420008051BDE8B040FEF7FDBC000070470000E1
:1024300040F2000042F64C21C2F20000C2F200015C
:1024400000780A68104408607047000080B543F6C1
:102450000040C4F20200016841F4007101600168AB
:1024600041F480610160016841F4807101600320E2
:1024700000F088F8002000F005F800F027F80020B0
:1024800080BD000070B540F20006C2F2000640F2C6
:1024900028013278C2F200014FF47A730968B3FB65
:1024A000F2F20446B1FBF2F1084600F021FC0F2CD9
:1024B0004FF0010508D838B94FF0FF30214600220F
:1024C000002500F033F87460284670BD82B000200B
:1024D00043F640010190C4F202014A6842F480428E
:1024E0004A604A6802F480420192019A00900868AA
:1024F00040F080500860086800F08050009000981C
:10250000072002B000F03EB8002848BF704700F036
:102510001F01012202FA01F11C2202EAD0004EF250
:102520000012CEF2000281507047000010B54EF646
:102530000C5CCEF2000CDCF80030C3F3022E8EF0FF
:102540000704042C28BF0424BEF103034FF0FF3E10
:102550000EFA04F438BF0023A14399400EFA03F3A6
:102560009A43114300F00F0200F160430901043A5D
:1025700003F564436244002848BF02F10C0319705C
:1025800010BD00004EF60C51CEF200010A684FF665
:10259000FF031A4060F30A2242F0806040F0FD70B1
:1025A0000860704701281CBF0020704743F60400F4
:1025B000C4F202004168090242BF48F20000C0F2C2
:1025C000BB00704701680268490241F20021C0F275
:1025D0007A0102F03F025CBF42F20041C0F2F40116
:1025E000D0F88030B1FBF2F1D0F88000C3F388124C
:1025F0005143C0F30270B1FBF0F07047F0B581B009
:102600000446006810F0050F2DD06827C4F2472754
:1026100043F670060020C4F202063860FEF710FC94
:10262000054600BF56F8700C000105D5FEF708FC02
:10263000401B0228F6D93FE0D4E90101090741EA2D
:102640008010706101203860FEF7FAFB054600BF7C
:1026500056F8700C000105D4FEF7F2FB401B02286F
:10266000F6D929E0206880074FF0000058D543F6DE
:102670007006C4F20206009056F8300C47F20007CC
:1026800040F0805046F8300C56F8300CC4F2000789
:1026900000F0805000900098386840F480703860F6
:1026A000FEF7CEFB054600BF3868C00508D4FEF72C
:1026B000C7FB401B0228F7D9032001B0F0BD00BFC3
:1026C000306810F4407013D0E16801F44071884222
:1026D0000ED0306840F64061C4F24721012220F458
:1026E00040700A6000220A6030603068C00719D16B
:1026F000E06856F8681C4FF6FF4300F4407221F47E
:10270000F811C0F6FF730340B2F5407F08BF1943CC
:1027100046F8681C31686FF31F30084330600020B2
:1027200001B0F0BDFEF78CFB054641F2883700BFD3
:1027300030688007DCD4FEF783FB401BB8424FF0C3
:102740000300F5D9ECE70000002804BF0120704722
:102750002DE9F04143F60808C4F202080446D8F80F
:10276000F8030D4600F00700884207D288F8F853B6
:10277000D8F8F80300F00700A84277D12068810755
:1027800017D5410705D5D8F8001041F4E051C8F835
:102790000010010705D5D8F8001041F46041C8F8D1
:1027A0000010D8F80010A26821F0F0011143C8F819
:1027B0000010C00740D1D8F8F80300F00700A84285
:1027C00007D988F8F853D8F8F80300F00700A842B2
:1027D0004CD12068410707D5D8F80010E26821F4F1
:1027E000E0511143C8F80010000708D5D8F80000E0
:1027F000216920F4604040EAC100C8F8000000F000
:1028000069F8D8F8001046F64002C1F30311C0F68B
:102810000002515C40F2280220FA01F140F204006B
:10282000C2F200000068C2F200021160FFF72AFE47
:102830000020BDE8F08100BF6068811E022907D238
:1028400058F8081C89015CBF0120BDE8F08111E047
:10285000012807D158F8081C89035CBF0120BDE896
:10286000F08107E058F8081C890703D40120BDE86F
:10287000F08100BFD8F8001021F003010843C8F828
:102880000000FEF7DDFA064641F28837D8F800006E
:10289000616800F00C00B0EB810F8CD0FEF7D0FA2D
:1028A000801BB842F2D90320BDE8F08140F2280035
:1028B00043F60801C2F20000C4F202010068096890
:1028C00046F65002C1F38221C0F60002515CC840B6
:1028D0007047000010B543F60404C4F202046068B7
:1028E00000F00C0142F200400829C0F2F40007D0C9
:1028F000042918BF10BD41F20020C0F27A0010BDBB
:10290000216801F03F02216823684902C3F388115E
:1029100006D4A1FB00010023FDF7FBFC07E000BF8C
:1029200041F20020C0F27A004843B0FBF2F0216887
:102930000222C1F3014102EB4101B0FBF1F010BDF5
:10294000002804BF012070472DE9F04182B0044601
:10295000007843F60006C007C4F202060CD0B06847
:1029600000F00C00042840F081803068800303D51B
:102970006068002800F06A81207880071BD5B06865
:1029800010F00C0F09D0B06800F00C00082840F0DF
:1029900087807068400200F183803068800703D52B
:1029A000E068012840F052813068216920F0F80089
:1029B00040EAC10030602078000713D42078400737
:1029C0002AD4A569002D00F03C81B06800F00C000D
:1029D000082840F0A180012D40F01081012002B0B4
:1029E000BDE8F0816069002840F20000C4F2472091
:1029F00000F07E800121C0F8801EFEF721FA054616
:102A0000706F8007DAD4FEF71BFA401B0228F7D953
:102A1000032002B0BDE8F081306C5FEAC0080AD440
:102A200000200190306C40F080503064306C00F039
:102A300080500190019847F20007C4F200073868FF
:102A4000C00547D4386840F480703860FEF7F8F964
:102A5000054600BF3868C0053CD4FEF7F1F9401BBD
:102A60000228F7D9032002B0BDE8F081B06800F079
:102A70000C00082803D1706840023FF576AF60680B
:102A8000B0F5803F07D0B0F5A02F40F09B803068B4
:102A900040F480203060306840F4803030609BE04B
:102AA000E06800285CD00020C4F2472001210160CA
:102AB000FEF7C6F9054600BF306880073FF574AFE2
:102AC000FEF7BEF9401B0228F6D9032002B0BDE88C
:102AD000F08100BFA068012805D0052854D1306FCF
:102AE00040F004003067306F40F00100306755E07F
:102AF0000021C0F8801EFEF7A3F90546706F80071D
:102B00007FF55CAFFEF79CF9401B0228F6D9032045
:102B100002B0BDE8F08100BF0027C4F247270020C3
:102B20003866FEF78DF9022D05460DD1306880011B
:102B300040F19080FEF784F9401B02284FF003001B
:102B4000F4D902B0BDE8F0813068800179D5FEF794
:102B500077F9401B02284FF00300F5D9F1E700BFD9
:102B60000020C4F2472000210160FEF769F9054604
:102B7000306880077FF51FAFFEF762F9401B02281F
:102B80004FF00300F4D9DCE7316F002821F0010198
:102B90003167316F21F0040131677DD0FEF750F9C4
:102BA000054641F2883700BF306F800700F186800C
:102BB000FEF746F9401BB842F6D9032002B0BDE843
:102BC000F08100BF3168002821F480313160316824
:102BD00021F4802131607BD0FEF732F9054600BF39
:102BE000306880033FF5C8AEFEF72AF9401B642821
:102BF000F6D9032002B0BDE8F08100BF7068E1693A
:102C000000F480028A4221D1216A00F03F028A4208
:102C10001CD147F6C071626A0140B1EB821F15D129
:102C2000A16A4FF6FF73C903994300F44032A1F53E
:102C300080318A420AD1E16A00F07060B0EB016F26
:102C400004D1002002B0BDE8F08100BF012002B035
:102C5000BDE8F08104F11C052FCD084340EA821045
:102C6000D9034FF6FF729143A1F5803140EA056028
:102C70000843706001203866FEF7E2F8044600BFA2
:102C800030688001DDD4FEF7DBF8001B02284FF02E
:102C90000300F5D955E700BFFEF7D2F8054641F22B
:102CA000883700BF306F800708D5FEF7C9F8401B92
:102CB000B8424FF00300F5D943E700BFB8F1000F69
:102CC0003FF57FAE306C20F08050306479E600BF75
:102CD000FEF7B6F8054600BF306880037FF54CAEBE
:102CE000FEF7AEF8401B64284FF00300F4D928E744
:102CF000411E0020B0EB116F1CBF012070474EF247
:102D00001002CEF2000251604EF62351CEF20001C5
:102D1000F0230B70072190601160704790F83C2001
:102D2000012A04BF02207047B0B501F108053CCD6F
:102D3000D1E900CE23F47C5322F470521A432EF4CE
:102D4000F0431A432CF4E0431A4324F4C0431A43DB
:102D50002A43C96922F4804203681143596400215F
:102D600080F83C10BDE8B0400846704790F83C2021
:102D7000012A4FF0020254D010B580F83D200268BD
:102D8000D2F804E0D2F808C00C682EF07003234398
:102D900041F2FF74C4F20004A24253600EDC40F220
:102DA000FF73C4F200039A4216DCB2F1804F2BD0BD
:102DB00040F20043C4F2000324E000BF40F2FF33BE
:102DC000C4F201039A4213DC41F60003C4F200038B
:102DD0009A4219D0002313E040F60003C4F2000326
:102DE0009A4211D040F60043C4F200030AE000BF4B
:102DF00044F20003C4F201039A4205D040F20043BA
:102E0000C4F201039A4204D149682CF080031943AB
:102E100091600121002280F83D1080F83C20BDE83F
:102E2000104010467047000001680020C4F2010005
:102E3000814218BF704780B586B0002143F630024A
:102E40000191C4F20202136800F5803043F00103DF
:102E50001360126802F001020192019A4FF480722D
:102E600001920222CDE9022104910121059101A9DB
:102E7000FDF708FF06B0BDE88040704790F83C3091
:102E8000012B04BF022070474FEAB202032A00F26E
:102E900001812DE9F043DFE802F0033F7FBF00BF6F
:102EA000036840F200461C6A1A6A24F0020422F009
:102EB00001021A621A46D3F804C052F818EF8F685C
:102EC00043F48065C4F20106B54244EA070405D123
:102ED000CF6824F00C0427F004073C430F68B54288
:102EE00006D1D1E905582CF440762E4346EA080C69
:102EF0002EF073063743C3F804C09F614F68096919
:102F00005F631C629F6947F008079F619F6927F014
:102F100004079F61B2E000BF036840F200481C6AEA
:102F20001A6A24F0200422F010021A621A46D3F81A
:102F300004C052F818EF8F6843F48065C4F20108AA
:102F4000454544EA071407D1CF686FF0400624F0E6
:102F5000C00406EA07163443D1F80090454506D16F
:102F6000D1E905562CF440672E4347EA860C2EF42F
:102F7000E64747EA0927C3F804C09F614F6809691B
:102F80009F631C629F6947F400679F619F6927F4F4
:102F900080679F6171E000BF036840F200481C6ACF
:102FA0001A6A24F4007422F480721A621A46D3F862
:102FB00004C052F81CEF8F6843F48065C4F2010826
:102FC000454544EA072408D1CF6840F2FF463F0256
:102FD00024F4406427EA06063443D1F800904545BE
:102FE00006D1D1E905562CF440572E4347EA061C7A
:102FF0002EF0730747EA0907C3F804C0DF614F6882
:103000000969DF631C62DF6947F00807DF61DF6978
:1030100027F00407DF6131E0036840F20045D3F890
:1030200020C01A6A43F4806722F480521A621A465A
:103030005C6852F81CEFD1F800808E68C4F201057C
:10304000AF4204D14D6924F4804444EA85142CF441
:10305000005747EA06372EF4E64646EA08265C6043
:10306000DE614E6809691E641F62DF6947F400670C
:10307000DF61DF6927F48067DF61090213681943A4
:1030800011600021BDE8F043002280F83C20084692
:10309000704700BF0121002280F83C20084670479D
:1030A000002804BF0120704710B5044690F83D0089
:1030B00028B9002084F83C00204600F01FF80220C8
:1030C00084F83D002068211D00F08CF9012084F86F
:1030D000460084F83E0084F83F0084F8400084F8FD
:1030E000410084F8420084F8430084F8440084F8E6
:1030F000450084F83D00002010BD0000006800215C
:10310000C4F20101884218BF704781B000200090CE
:1031100043F64400C4F20200016841F0010101607D
:10312000006800F001000090009801B070470000B6
:10313000FEE70000806B01684A6822F003024A60E3
:10314000002141854186012180F84110416C41F008
:1031500008014164FEF7EEBEC169806B002918BF0B
:10316000FFF7F8B801684A6822F001024A600021BE
:103170004186012180F84110FFF7ECB8806BFFF722
:103180001FB9000010B584B004460068816803913F
:1031900094F84110042935D10399C90716D0416824
:1031A000490613D5C168E26A22F8021BE262618E09
:1031B00001396186618E49B9416821F06001416041
:1031C000012084F841002046FFF7C4F80398400628
:1031D00018D520684168890614D5416821F060013E
:1031E000416000210291C1680291806802900298BA
:1031F000012084F84100606C40F0020060642046C9
:10320000FEF798FE94F84100032817D10398800731
:103210000DD520684168090609D5616A31F8022B8D
:10322000C2606162618D01396185618DF1B1039880
:10323000000703D520684168890601D404B010BD99
:10324000416821F0A0014160002101918068019056
:103250000198012084F84100606C40F00401204690
:10326000616404B0BDE81040FEF764BE416821F01F
:10327000A0014160012084F841002046FFF7D6F804
:1032800003980007D6D4D9E70246002840F600008C
:10329000C4F202004FF0010118BF0122FDF7CABDC0
:1032A00080B540F2F00044F6FD11C2F20000C0F615
:1032B0000001012200F09EFF002818BFFDF726FA4A
:1032C00040F2F00040F20801C2F20000C2F2000138
:1032D00001F048FB002818BFFDF718FA40F2F00093
:1032E000C2F2000001F080FB002808BF80BDBDE8ED
:1032F0008040FDF70BBA000040F2F000C2F200007F
:1033000001F0DCB8FEE70000FEE7000040F2885064
:10331000C2F20000FDF770BE704700007047000069
:10332000FFF786B8B0B592B0002443F64000CDE96F
:103330000A44CDE908440594CDE90344CDE90144AC
:103340000094C4F202000168022541F0805101603E
:10335000006800F080500090009847F20000009450
:10336000C4F20000016841F480410160006800F48B
:10337000804000900098012006904FF48030079024
:103380004FF480000D9008200E904FF4A870CDE906
:103390000F050720119006A80C95FFF7D1FA18B178
:1033A00072B600BFFEE700BF0F20CDE901054FF464
:1033B000A05004904FF48050059001A8052103947B
:1033C000FFF7C2F910B172B6FEE700BF12B0B0BD90
:1033D0004EF68850CEF20000016841F470010160A1
:1033E0007047000010B540F6FF3E0368C4F2000EBF
:1033F00040F2004C7045C4F2010C27DCB0F1804F64
:1034000031D040F20042C4F2000290422BD040F68C
:103410000002C4F20002904225D041F6FF72C4F2CD
:103420000002904229DC70453CDCB0F1804F5FD057
:1034300040F20042C4F20002904259D040F600022D
:10344000C4F20002904253D056E000BF40F6004262
:10345000C4F20002904206D0604504D00022C4F2BB
:1034600001029042D9D14A6823F07003134341F618
:10347000FF72C4F200029042D5DD43F6FF72C4F23F
:103480000102904222DC42F20002C4F200029042A9
:103490002ED00022C4F20102904229D0604527D0EC
:1034A0002AE000BF40F60042C4F2000290421FD062
:1034B00041F60002C4F20002904219D041F60042E7
:1034C000C4F20002904213D016E000BF44F20002A2
:1034D000C4F2010290420BD044F60002C4F2010291
:1034E000904205D044F20042C4F20102904203D15E
:1034F000CA6823F44073134323F080024B69D1F868
:1035000000E08C681A430260C46240F48062C0F834
:1035100028E0624504BF0969016301214161016935
:10352000C90708BF10BD016921F00101016110BD8B
:1035300090F88523120601D400225AE090F88923DE
:10354000120601D4012254E090F88D23120601D412
:1035500002224EE090F89123120601D4032248E0A3
:1035600090F89523120601D4042242E090F89923A2
:10357000120601D405223CE090F89D23120601D4E6
:10358000062236E090F8A123120601D4072230E08B
:1035900090F8A523120601D408222AE090F8A92366
:1035A000120601D4092224E090F8AD23120601D4BA
:1035B0000A221EE090F8B123120601D40B2218E073
:1035C00090F8B523120601D40C2212E090F8B9232A
:1035D000120601D40D220CE090F8BD23120601D48E
:1035E0000E2206E090F8C123120644BFFF20704768
:1035F0000F2201F5004100EB8200C0F88413104651
:103600007047000080B584B0944601224FF0000E50
:10361000CDE9002119460223CDF80CE0CDF808C011
:1036200000F022FF002004B080BD000010B584B07F
:103630009E4690F81D339446069A0024002B18BF2E
:1036400022460123CDE90031039271460022022374
:10365000CDF808C000F008FF002004B010BD000045
:10366000B0B50446D0F87C030722C06900F14001E0
:1036700042F2A11020820020C4F812000720E0824C
:10368000204600F0FBF9054610B12846B0BD00BF4A
:10369000D4F8D4232046022190472846B0BD00002C
:1036A000B0B50446D0F87C03C569297841B12046FD
:1036B00000F0BCF92978204600F08AFB0020287031
:1036C000297B41B1204600F0B1F9297B204600F06A
:1036D0007FFB00202873697B41B1204600F0A6F9EA
:1036E000697B204600F074FB00206873D4F87C03EB
:1036F000C06928B1FCF7E6FDD4F87C030021C16164
:103700000020B0BD2DE9F04184B002210222012346
:103710000446022600F0DEFA012806D807462046B5
:10372000394601F02DF928B10226304604B0BDE833
:10373000F08100BF01205021FCF7B0FD0546D4F810
:103740007C03C5617DB31A2017FB004191F94E033C
:10375000B0F1FF3F02DD002005E000BF01F553712D
:10376000898868706981C1B22046FFF7E1FE014691
:1037700094F81D036A7894F81C336F890326CDE909
:10378000000620462970029700F08AFE297820461C
:10379000002200F035FE20460A210022002300F01E
:1037A00099FA012804D90226304604B0BDE8F08118
:1037B0001A2110FB014292F94E1302F55372B1F136
:1037C000FF3F9288C7BFA9732A83E9736A831A21CE
:1037D00010FB014191F9560301F55671B0F1FF3F1D
:1037E00004DD0988A873298304E000BF0988E87311
:1037F000A87B6983C1B22046FFF79AFEE97B687314
:103800002046FFF795FE697BAA7B94F81C3394F859
:103810001D732E8B28734FF002082046CDE90078E7
:10382000029600F03DFE94F81D03297BEA7B94F894
:103830001C336F8BCDE900082046029700F030FE64
:10384000697B00262046002285F84C6000F0D8FDF8
:10385000297B2046002200F0D3FD304604B0BDE8AD
:10386000F08100007047000070B582B00446D0F8C7
:103870007C03C66996F84C0004281DD8DFE800F0E8
:1038800004082050660000BF002002B070BD00BFD9
:1038900042F22100B16C20820020C4F812000720FF
:1038A000E0822046072200F0E9F8012804D0002831
:1038B00058D1022086F84C00012002B070BD00BF34
:1038C00042F2A1102082002006F14005C4F8120047
:1038D0000720E08220462946072200F0CFF8012881
:1038E000EAD000283ED1002086F84C00B06C96F853
:1038F000441002799142DFD196F8461082799142C4
:10390000DAD196F8451042799142D5D129680068FC
:103910008142D1D12046FFF7A5FF012002B070BD42
:1039200096F84D00022823D0012835D1706A328BD9
:10393000F1699042737B88BF1046012582B2204610
:103940000095FFF773FE022024E000BF204600210F
:10395000002400F071F8002808BF86F84C400120D0
:1039600002B070BD042086F84C00012002B070BD8A
:10397000717B204600F0CCFC02280AD001280BD134
:10398000716A308B814243D9F269091A104471621D
:10399000F061012086F84D00D4F87C03C56995F8E4
:1039A0004E0004280ED003287FF486AF296A6A8B64
:1039B0002B7B2046FFF726FE042085F84E000120D1
:1039C00002B070BD297B204600F0A2FC01287FF4E4
:1039D00073AF297B204600F08DFCA96A091A0DD02F
:1039E0006A8B90420AD12A6AA96210442862032095
:1039F00085F84E00012002B070BD00BF002085F8A0
:103A00004E00204600F00CF8012002B070BD00BF4F
:103A10000020706286F84D00204600F005F8BBE7F4
:103A200070470000002070477047000080B500F02C
:103A30001DFC002080BD00008278012A05D14FF4D2
:103A40008172818200210261C1820021002200F086
:103A500015B8000080B584B0944601224FF0000EE6
:103A6000CDE9002119460023CDF80CE0CDF808C0BF
:103A700000F0FAFC002004B080BD0000B0B582B0B8
:103A80000446807802280BD0012840F0AD80012543
:103A90000220A160A2812576A070284602B0B0BDA8
:103AA000207E01380A2800F29F800FF20601DFE82D
:103AB00000F0070F27333F4F67737F8FA50000BFCC
:103AC000627904F11001204600F0F0F8022090E045
:103AD0006179204600F01CFC042818BF022800F081
:103AE0008780012840F08080E18A94F91000002945
:103AF00000F0BC80B0F1FF3FD4BF0320052078E088
:103B0000D4F8C403A168A2892379E0812046FFF795
:103B1000A1FF04206DE000BF2179204600F0F8FBF2
:103B2000052800F07780042862D001285AD05BE095
:103B3000A168A289637901252046009500F09CF8D0
:103B4000D4F8C403E08106202076284602B0B0BD38
:103B50006179204600F0DCFB411E04294FF001058D
:103B60003FF69BAF0320DFE801F0057303795800AF
:103B700093E700BF07202076284602B0B0BD00BF03
:103B80002379204600210022FFF764FFD4F8C40304
:103B9000E08108202DE000BF2179204600F0B8FB2D
:103BA000052837D0042823D001281DD134E000BFD8
:103BB00063790125204600210022009500F05CF881
:103BC000D4F8C403E0810A202076284602B0B0BDB4
:103BD0006179204600F09CFB01281DD0042807D005
:103BE000022801D1092004E00125284602B0B0BD19
:103BF0000B2020760125284602B0B0BD607E013042
:103C0000C1B20229607611D801252576A570284613
:103C100002B0B0BD032000E000200121A17000210E
:103C200021760546284602B0B0BD00BFD4F8D423A3
:103C3000204606219047617900252046657600F0F0
:103C4000C7F82179204600F0C3F8257008E000BFCE
:103C500005202076284602B0B0BD00BF0B2020769C
:103C600001200225A070284602B0B0BDB0F1FF3F90
:103C7000B8DD0720BDE7000010B584B09E4690F87F
:103C80001D339446069A0024002B18BF22460123B8
:103C9000CDE900310392714600220023CDF808C01F
:103CA00000F0E2FB002004B010BD000080B584B03D
:103CB0008C46002108230091CDE9023111460022F3
:103CC0000023CDF804C000F0CFFB002004B080BD7D
:103CD000FCF7C4BFFF2911D1FF2A21D1FF2B5FD0F0
:103CE00090F8491399425BD090F863134FF0FF307E
:103CF000994208BF0120C0B2704700BF90F847C387
:103D0000FF2A1DD1FF2B2DD18C4549D090F861237E
:103D10004FF0FF308A4208BF0120C0B2704700BF99
:103D200090F84813FF2B29D1914239D090F86213B3
:103D30004FF0FF30914208BF0120C0B2704700BF72
:103D4000FF2B23D18C4503D190F84833934227D0E1
:103D500090F861338B4237D190F8620390422FD0B4
:103D600032E000BF8C4503D190F849239A4217D026
:103D700090F861238A421FD026E000BF914217D1FC
:103D800090F8491399420BD012E000BF8C450BD13B
:103D900090F848C3944507D190F849C39C4503D196
:103DA0000020C0B2704700BF90F861C38C450BD1B2
:103DB00090F86213914207D190F86303984203D1BF
:103DC0000120C0B2704700BFFF20C0B270470000A2
:103DD0000F2907D800EB8100D0F884136FF3DF318F
:103DE000C0F8841300207047B1F5807F82BF0320A4
:103DF000C0B270472DE9F04F85B0824680780E46FC
:103E000001280AF11C0509D14FF4D060AAF810006E
:103E10004FF40070CAF81200AAF8166050462946FE
:103E20003246FFF72BFE28B105B0BDE8F04FC0B217
:103E3000704700BF9AF81C0009281CBF0920287091
:103E40009AF81D10BAF81E4009208AF838038AF83B
:103E500039139AF82010B4F5807F28BF4FF480748E
:103E6000DAF821000A2EAAF83A438AF83C13CAF875
:103E70003D03C0F0F5800A2C4FF000004FF0000623
:103E80000091C0F0E0804FF0090C00210927039455
:103E90002A7815446B781744042B40F0CD802A789B
:103EA000092A4FF01A0201FB02AB18BF85F800C0C7
:103EB0008BF842C3697801968BF84313A9788BF885
:103EC0004413E9788BF8451395F80490B9F1020F83
:103ED00028BF4FF002098BF846936979B9F1000FBA
:103EE0008BF84713AA798BF84823EB798BF8493381
:103EF00002932B7A8BF84A3300F09A8002F0FE028C
:103F000081F0010182F0020211434FF000084FF0EE
:103F1000000C18BF0121049108E000BF0CF1010C56
:103F20005FFA8CF8C845774480F08280B9B2A1422C
:103F300080F09C8095F800E0754469780529EFD100
:103F4000049818B107210846297007E002992878DB
:103F500021B9092109284FF00900F4D10BEBC8045D
:103F600084F84C0368789AF81D1384F84D03A878F8
:103F700084F84E03EB7884F84F33AE88A4F850638E
:103F8000A6F20120AA7910F5007F4FF0000038BF9B
:103F90000320022984F8522312D001291CD00029C1
:103FA0002ED103F00301039CDFE801F00206320684
:103FB000402E88BF0320B1E7A2F111011BE000BF32
:103FC00003F00301039C03291ED0D1B9B6F1080008
:103FD00018BF0320A2E700BF03F00301039CDFE842
:103FE00001F00305031D00BFE2E700BFA2F11101CC
:103FF000402E88BF032011F1100F38BF03208DE73A
:10400000039C03208AE700BF082E88BF03200AE034
:10401000B6F5007F88BF032080E700BF0021B1EB29
:10402000962F18BF0320002A08BF032076E700BFA1
:10403000019E4FF0090C0136F1B2012903D8BAB242
:10404000A242FFF425AF009AF1B2022A28BF022251
:104050008A4288BF032005B0BDE8F04FC0B2704768
:10406000002005B0BDE8F04FC0B27047032005B096
:10407000BDE8F04FC0B27047B1F5007F84BF0320A8
:104080007047B0B5044680780D46012804F58E715E
:1040900007D14FF4D06020824FF48070C4F8120032
:1040A000E58220462A46FFF7E9FC08B1B0BD00BF13
:1040B000D4F81C01B4F82111C4F8260394F82001A7
:1040C000A4F82B1394F81D1384F82A0394F8230101
:1040D000022984F82D030DD2A0F10801400740EA1F
:1040E000D100082809D2C0B28B2121FA00F0C00704
:1040F00003D005E006D1082802D0082084F82D035B
:10410000002000E00320092D38BFB0BDB4F8241111
:1041100094F82A21A4F82E13D4F8261184F8342315
:10412000C4F83013B4F82B1194F82D21A4F83513EA
:1041300084F83723B0BD000070B505464FF003008A
:10414000D2B11E46B3F5007F88BF70BDA878144673
:10415000012805F58E7209D101F540704FF4D06148
:10416000688240F209402982A882EE8228461146E0
:104170003246FFF783FC08B170BD00BF95F81D0102
:1041800003281CBF002070BD95F81C010238B04206
:1041900088BF304680B2E8B105F58F71002200BFBC
:1041A000931C8E5C9BB28342267017D2CE5C131D8B
:1041B0009BB28342667015D2CE5C931D9BB2834244
:1041C000A67013D2CB5C083292B2E370824204F143
:1041D0000404E5D30020207070BD00BF013400202E
:1041E000207070BD02340020207070BD03340020A8
:1041F000207070BD002804BF02207047F0B581B068
:1042000004460D4680F8CC2300F55F704821FCF78A
:104210001AF900274FF4807101202770A4F80110CB
:10422000C4F8C47320834020A07104F11C00C4F8BA
:104230001C134FF4407104F22636FCF704F93046A3
:104240005021FCF7DEF8204684F8237384F82073AD
:1042500084F82173002D84F8227318BFC4F8D45356
:1042600000F06AF8002001B0F0BD000080B5D0F881
:10427000D003FCF709FE40F200220223C100C0F285
:104280000122042838BF22FA01F3D8B280BD000011
:104290000146012081F820030022002081F821231B
:1042A00081F822237047000010B50446012084F8ED
:1042B0002103002084F8200384F82303204600F023
:1042C000C1F821792046FFF783FD61792046FFF789
:1042D0007FFD002010BD000080B590F8CC030128C0
:1042E00002D10846FEF7D0FFC820FCF7B7FC00203B
:1042F00080BD0000D0F8D003FCF7C0BD80B5D0F879
:10430000D003FCF7AFFD032828BF0120C0B280BD59
:10431000D0F8D003FCF7AABDD0F8C4130131C0F81F
:10432000C41301780B2918BF7047D0F87C1309B16A
:10433000896908477047000010B5044690F8CC031F
:10434000012822D140F28850C2F200004FF0A04173
:1043500001600821A0F805100121C1710221C0F8F7
:10436000DC43C4F8D003A0F80910FDF7F3FA0028E5
:1043700018BFFCF7CBF940F28850C2F20000FCF7FE
:104380006DFD0146204600F037F8002010BD00000A
:1043900010B584B0DDE906CE089CD0F8D003CDE995
:1043A00000CE0294FCF782FD40F200220223C100FD
:1043B000C0F20122042838BF22FA01F3D8B204B0B7
:1043C00010BD0000002180F823137047012180F800
:1043D0002313704780B5D0F8D003FDF755FB40F2AA
:1043E00000220223C100C0F20122042838BF22FAB1
:1043F00001F3D8B280BD0000C0F8C41370470000BC
:10440000D0F8D003C1EB011100EB8100C17D002980
:104410000CBF80F83D2080F83C2000207047000051
:1044200080B5D0F8D003FDF737FB40F2002202231D
:10443000C100C0F20122042838BF22FA01F3D8B229
:1044400080BD000080B5D0F8D003FDF73BFB40F203
:1044500000220223C100C0F20122042838BF22FA40
:1044600001F3D8B280BD0000B0B584B0DDE908CE5C
:10447000DDE90A45D0F8D003CDE900CECDE902450B
:10448000FCF766FD40F200220223C100C0F20122C7
:10449000042838BF22FA01F3D8B204B0B0BD00003E
:1044A00010B584B0DDE906CE089CCDE900CE0294BB
:1044B000FFF76EFF002004B010BD0000F0B585B01E
:1044C000044602208DF8130094F82103012804BF4C
:1044D0000320207020780B2800F21181DFE810F013
:1044E0000C002E003C0074000F01B600EE0000012D
:1044F000080112012801220094F82003002800F08E
:10450000FE8001202070C820FFF7E2FB2046FFF765
:1045100061FF002084F81C03C4F8C803002005B024
:10452000F0BD00BFD4F87C03002800F0E8804169AA
:1045300020468847002005B0F0BD00BF94F8230353
:10454000012840F01381002084F81F03022020700E
:10455000002005B0F0BD00BFD4F8D42312B120462E
:10456000042190476420FFF7B3FB2046FFF7C6FE07
:1045700084F81D0305202070204600210025FEF749
:10458000D7FF607120468021FEF7D2FF014694F8E4
:104590001D0394F81C33A6792171CDE9000520464E
:1045A00080220296FFF77CFF94F81D0394F81C33D9
:1045B0006179A679CDE90005204600220296FFF731
:1045C0006FFF002005B0F0BD002604F561704021AA
:1045D00084F821634025FBF736FF4FF480710120FA
:1045E0002670A4F80110C4F8C463208304F11C00F1
:1045F000C4F81C134FF44071A57104F22635FBF783
:1046000022FF28465021FBF7FCFED4F87C0320B1A2
:10461000C16820468847C4F87C63D4F8D42312B11B
:1046200020460521904794F82203012840F0B080ED
:10463000002084F822032046FFF7F2FE20460121E5
:10464000FFF74AFE002005B0F0BD00BF60780728E4
:1046500000F26481DFE810F00800F800BE000201FB
:10466000EC0020012E013C0120460821FFF704FD4B
:10467000032800F04981002840F0508194F82D0370
:1046800094F81D230125217994F81C33A0716570DD
:10469000002700920290204680220197FFF700FF3A
:1046A00094F81D0394F81C336179A679CDE90007CD
:1046B000204600220296FFF7F3FE30E1D4F87C0397
:1046C000002860D00169204688478DF813009DF8C6
:1046D0001300002872D09DF8130002280FD152E079
:1046E000D4F8D4235AB120460121904725E100BFD8
:1046F00094F83D13204600F05BF900284ED00020CE
:1047000005B0F0BD94F83F0380060CD5204601218A
:1047100000F05CF98DF813009DF8130018B19DF8B6
:1047200013000328EBD10A202070002005B0F0BD53
:10473000D4F880030028E2D0D4F8780394F8472313
:10474000017900239142C4F87C331CD18168C4F8FC
:104750007C0320468847B0B906202070D4F8D423C3
:10476000204603219047002005B0F0BDD4F8C803CF
:10477000B0F57A7F18D994F81F030130C1B204292B
:1047800084F81F0320D30D202070002005B0F0BD59
:104790002046FFF745FE002005B0F0BD092020703F
:1047A000002005B0F0BD00BF0A30C4F8C8030A20DD
:1047B000FFF78EFA002005B0F0BD00BF0B2020707F
:1047C000002005B0F0BD00BF00202070002005B023
:1047D000F0BD00BF20460121012500F0DBF80328D1
:1047E00000F08C80002840F09A800220FFF770FAD9
:1047F00094F81D23A37901250320217984F81C5303
:1048000060700026009202932046802201230196C8
:10481000FFF746FE94F81D0394F81C336179A779DD
:10482000CDE90006204600220297FFF739FE76E028
:10483000B4F83A132046FFF7D7FA032818D0002817
:104840006CD105205DE000BF20461221FFF714FC6B
:1048500003280DD0002861D1022052E02046092112
:10486000FFF7C2FA032803D0002857D1042048E0FC
:1048700094F81E030130C1B2042984F81E034BD200
:1048800061792046FFF7A4FA21792046FFF7A0FAC4
:104890000020607041E000BF94F8341341B104F58A
:1048A0008E722046FF23FFF747FC032800D0A8BBE9
:1048B000062026E094F8351341B104F58E722046A7
:1048C000FF23FFF739FC032800D038BB072018E08E
:1048D00094F8361381B104F58E722046FF23FFF75A
:1048E0002BFC0028014618BF0121033818BF012006
:1048F00001EA000513E000BF002510E00D20207044
:10490000002060700AE000BF94F81E030130C1B2BD
:10491000042984F81E031BD30D20207001258DF877
:1049200013509DF8130000287FF4E9AE94F8370384
:104930000021012884F8241304D1082020700020CD
:1049400005B0F0BD07202070002005B0F0BD00BF0D
:1049500061792046FFF73CFA21792046FFF738FAC3
:104960000020DAE711B1D0F880230AB102207047A5
:104970000122C0F88023C0F878130020704700009F
:1049800090F83C238A4292BF022080F82413002032
:10499000704700008278012A05D14FF4A06241825D
:1049A00000210282416100210022FFF767B8000068
:1049B0008278012A05D14FF41062418200210282DF
:1049C000416100210022FFF759B800008278012AD6
:1049D00005D14FF4407241820021028241610021E1
:1049E0000022FFF74BB8000010B50446FFF718FD92
:1049F00020460121FFF770FC002010BD05290BD0D7
:104A0000042911D0022918BF7047022040F2EC019E
:104A1000C2F2000108707047032040F2EC01C2F2BC
:104A200000010870704700BF012040F2EC01C2F2A3
:104A3000000108707047000082B002F47F42B2F5B6
:104A4000807F40F07F80826B4FF6BF7322F480320C
:104A50008263C268CFF6BD731A40C260029BC2680F
:104A6000DBB222F44012012BC26003D1C26842F4CF
:104A70008012C26000220092009A01320092009AD5
:104A8000B2F1706F00F2BE800269002A21D4009A50
:104A900001320092009AB2F1706F00F2B3800269A5
:104AA000002A16D4009A01320092009AB2F1706F77
:104AB00000F2A8800269002A0BD4009A0132009209
:104AC000009AB2F1706F00F29D800269B2F1FF3F6F
:104AD000D2DC00220092026942F001020261009AD7
:104AE00001320092009AB2F1706F00F28B8002697D
:104AF000D2071ED0009A01320092009AB2F1706F74
:104B000000F280800269D20713D0009A013200922D
:104B1000009AB2F1706F75D80269D20709D0009A75
:104B200001320092009AB2F1706F6BD80269D2071D
:104B3000D5D14FF0000C01F47F01B1F5803F40F07A
:104B4000818077E0C26842F04002C2600022019298
:104B5000019A01320192019AB2F1706F5AD802693A
:104B6000002A1ED4019A01320192019AB2F1706FAB
:104B700050D80269002A14D4019A01320192019A94
:104B8000B2F1706F46D80269002A0AD4019A013244
:104B90000192019AB2F1706F3CD80269B2F1FF3F05
:104BA000D6DC00220192026942F001020261019A00
:104BB00001320192019AB2F1706F2BD80269D207CB
:104BC0001DD0019A01320192019AB2F1706F21D881
:104BD0000269D20713D0019A01320192019AB2F10F
:104BE000706F17D80269D20709D0019A0132019279
:104BF000019AB2F1706F0DD80269D207D7D14FF088
:104C0000000C09E04FF0030C01F47F01B1F5803F87
:104C100018D10FE04FF0030C826B13F47F4F14BFD9
:104C200022F4803242F48032826301F47F01B1F5D4
:104C3000803F07D1816841F006018160816841F0C1
:104C400020018160604602B0704700000146806824
:104C500020F0010200208A607047000081B000222D
:104C60000092D0F8402401290092009A22F02E02EE
:104C70000092009B009A08BF13F480530CD039B9FE
:104C800012F4805104D0009921F48051C0F84014EE
:104C9000002001B0704700BF42F48051C0F84014BA
:104CA0000098002001B070470146806840F0010282
:104CB00000208A607047000081B0002100910099B7
:104CC000013100910099B1F1706F51D8016900294B
:104CD0001ED40099013100910099B1F1706F47D84D
:104CE0000169002914D40099013100910099B1F1B2
:104CF000706F3DD8016900290AD4009901310091F3
:104D00000099B1F1706F33D80169B1F1FF3FD6DC82
:104D10000021009110210161009901310091009959
:104D2000B1F1706F24D80169C9061DD50099013110
:104D300000910099B1F1706F1AD80169C90613D5B5
:104D40000099013100910099B1F1706F10D801699B
:104D5000C90609D50099013100910099B1F1706F30
:104D600006D80169C906D7D4002001B0704700BF3A
:104D7000032001B07047000081B000220092009A29
:104D800001320092009AB2F1706F51D80269002A84
:104D90001ED4009A01320092009AB2F1706F47D887
:104DA0000269002A14D4009A01320092009AB2F1EA
:104DB000706F3DD80269002A0AD4009A013200922D
:104DC000009AB2F1706F33D80269B2F1FF3FD6DCBE
:104DD0008901002220310092016100990131009186
:104DE0000099B1F1706F23D8016989061DD500992A
:104DF000013100910099B1F1706F19D801698906EC
:104E000013D50099013100910099B1F1706F0FD85D
:104E10000169890609D50099013100910099B1F124
:104E2000706F05D801698906D7D4002001B070479A
:104E3000032001B070470000D0F8080480B270472A
:104E400081B000210091D0F8400400900098C0F398
:104E5000414001B070470000406900F00100704718
:104E600080B581B00022009200EB4111D1F800C55D
:104E7000D1F800E5D1F8042583689B060FD5002AF8
:104E80000DD4BEF1FF3F03DD002001B080BD00BFA7
:104E9000022242EA9C4202F00302032AF4D001F506
:104EA000A0610A685FEA4C3342F080420A603BD45A
:104EB0008268920678D4C26A086812F47F0F74D1AF
:104EC00020F000400860086840F00040086000984A
:104ED000013000900098B0F57A7FD5D80868B0F11D
:104EE000FF3FD1DC0098013000900098B0F57A7F48
:104EF000CAD80868B0F1FF3FC6DC009801300090C6
:104F00000098B0F57A7FBFD80868B0F1FF3FBBDCEE
:104F10000098013000900098B0F57A7FB4D8086806
:104F2000B0F1FF3FD3DDAFE7D0F81024086812F4EA
:104F30007F0F3AD120F000400860086840F0004040
:104F400008600098013000900098B0F57A7F9BD8F7
:104F50000868B0F1FF3F97DC00980130009000989E
:104F6000B0F57A7F3FF690AF0868B0F1FF3F3FF7AA
:104F70008BAF0098013000900098B0F57A7F3FF633
:104F800083AF0868B0F1FF3F3FF77EAF0098013074
:104F900000900098B0F57A7F3FF676AF0868B0F1E0
:104FA000FF3FCEDD70E700BF086840F000400860BA
:104FB000002001B080BD00002DE9F04381B0DDE9A3
:104FC00008840A9E00EB411707F5A06E4FF0FF35ED
:104FD000032C4FF00109C7F8085513D8DFE804F097
:104FE0000216022240F29D4C754657B2002F45F83A
:104FF0000CCF20D40027C4F20407B84221D14FF0CF
:10500000600C1AE04FF0010C1DE000BF40F2252CAF
:10501000754657B2B7F1FF3F45F80CCF11DC4FF49E
:10502000C07C0AE040F29D6C754657B2B7F1FF3F75
:1050300045F80CCF05DC4FF4807C2F6847EA0C075D
:105040002F604FF0000C0025CEF80450DEF80C70F5
:1050500001F00F0147F00207CEF80C70D0F8187479
:1050600009FA01F13943C0F81814816903F07F038C
:1050700041F0007181610095D0F8400402F0800198
:1050800000900098090200F4C02062F3CE2104F0E1
:10509000030541EA8351B0F5802F4FF480106FF380
:1050A000DF2641EA854118BF4FF4901031444FF498
:1050B0008012B8F1020F18BF1046084404F0FD0139
:1050C0000129CEF8000005D1DEF8000040F00050C4
:1050D000CEF80000604601B0BDE8F083D0F81404BB
:1050E00080B27047F0B581B00023C4F2040391F898
:1050F00001C0984222D091F806E0BEF1010F07D11D
:10510000CE78002E46D08C8A0125CC6175E000BF98
:105110000C6A002C4ED08B8AE518013DB5FBF3F5E7
:10512000ABB2B3F5807F88BF4FF48075CE78002E88
:1051300044D08B8AACB25C43CC615EE0012A11D1D1
:105140008B7C43F00203022BD5D18B79002BD2D17B
:1051500000EB4C13D3F80C6526F07006C3F80C6511
:10516000C9E700BF0E79002EC5D14E79012EC2D1FC
:10517000002103EB4C10C8F20801C0F81015D0F85C
:105180000015022262F39F71C0F80015002001B0E3
:10519000F0BD00BF8B7C012B12D10C6ABD2C1FD33C
:1051A000CB688C8A013B012BCC610C6222D8022394
:1051B0001DE000BF0125CE78002EBAD1CC611BE0E6
:1051C0000C6A012A08D18B8A9C4205D9CB61012542
:1051D00000261C4611E000BFCC6101250CE000BF99
:1051E000CB68CC61013B022B34BF03230423CB608B
:1051F000012501E00125CD6000268B7D6FF3DF44A2
:1052000065F3DC4403F0030344EA437300EB4C15FD
:10521000C5F8103505F5A064002A1CBF8B696361D1
:10522000D0F808342568BEF1010F25F0005525603F
:105230004FF00055276825EA437343EA07032360CC
:1052400016D10B7C4F7CCD7943EAC71303F10043A1
:105250006360E368012D43F06003E36008BF002E44
:1052600036D08B7C43F00207032F3ED002E000BF14
:10527000002363602368002E0093009B23F080438B
:10528000009355D1009B002A23F400430093009B18
:1052900043F000430093009B23607FF477AF0A6ADA
:1052A000002A3FF473AFCB79002B7FF46FAF8B7C78
:1052B000032B58D8DFE803F0024A024AC76AD31C1E
:1052C000C3F38F03BFB2BB424DD9202348E000BFD8
:1052D000636843F480336360E36843F04003E36052
:1052E0008B7C43F00207032FC4D1012D08BF012E90
:1052F00014D0012BBED1AEB9CB68013B042B05D233
:1053000032A757F8233067683B43636023680093F4
:10531000009B23F080430093B4E700BF606840F433
:105320008030606020680090009820F080400090FD
:10533000009840F400400090009840F00040009039
:1053400000982060002001B0F0BD00BFD0F81074BC
:10535000D31CC3F38F03BFB2BB4204D94FF08063A9
:1053600087693B43836192B2002A3FF40FAFD61C9A
:105370004FF0FF33896903EB960300F580504FEA45
:105380000C32032BC6F381030ED3B70827F00305B5
:105390000F68043D17504F6817508F681750CF683B
:1053A00001F110011750F3D1002B3FF4EFAE0F685D
:1053B000012B87503FF4EAAE4F68022B87501CBF89
:1053C00089688150002001B0F0BD00BF008000005E
:1053D0000E0000000040000000C0000070B582B068
:1053E00086460020CEF8000EDEF8380040F40010AB
:1053F000CEF83800DEF8380020F40020CEF838006F
:10540000DEF8380020F48020CEF83800DEF80C00FA
:10541000400609D401F07F42DEF80004B2F1807F3B
:1054200004D140F0040003E0DEF8000420F00400A2
:10543000CEF800040B0A0020009000980130009084
:105440000098B0F1706F59D8DEF81000002821D410
:105450000098013000900098B0F1706F4ED8DEF8DF
:105460001000002816D40098013000900098B0F188
:10547000706F43D8DEF8100000280BD4009801307C
:1054800000900098B0F1706F38D8DEF81000B0F1DD
:10549000FF3FD2DC002000904FF48460CEF8100073
:1054A0000098013000900098B0F1706F26D8DEF8B7
:1054B0001000800620D50098013000900098B0F1CF
:1054C000706F1BD8DEF81000800615D500980130EB
:1054D00000900098B0F1706F10D8DEF810008006D0
:1054E0000AD50098013000900098B0F1706F05D88F
:1054F000DEF810008006D3D4002000E00120002256
:105500000192019A01320192019AB2F1706F57D85B
:10551000DEF81020002A21D4019A01320192019A6A
:10552000B2F1706F4CD8DEF81020002A16D4019A20
:1055300001320192019AB2F1706F41D8DEF8102069
:10554000002A0BD4019A01320192019AB2F1706FD4
:1055500036D8DEF81020B2F1FF3FD2DC00220192F3
:105560001022CEF81020019A01320192019AB2F174
:10557000706F25D8DEF81020D20622D5019A0132AC
:105580000192019AB2F1706F1AD8DEF81020D2069B
:1055900017D5019A01320192019AB2F1706F0FD8BA
:1055A000DEF81020D2060CD5019A01320192019A40
:1055B000B2F1706F04D8DEF81020D206D3D400E028
:1055C0000120DCB2C4B303F0030C0023042C4FF021
:1055D000000218D3A4EB0C040EF5AC654FF0FF36B7
:1055E000043245F8586C45F8543C45F8386C45F899
:1055F000343C45F8186C45F8143CAE60EB609442BE
:1056000005F18005ECD1BCF1000F15D00EF5A063BB
:1056100003EB42124FF0FF340023BCF1010F946002
:10562000D36009D0BCF1020F9462D36204D04FF072
:10563000FF3393640023D3640022C4F204020023E6
:10564000CEF818304FF0FF339645CEF814301FD007
:105650008022CEF824208022C0F26002CEF82820DA
:10566000E022C0F24002CEF8002111F47F0F05D1F4
:10567000DEF8181041F01001CEF81810DEF81810FE
:105680000822CAF220321143CEF8181002B070BDC1
:105690004FF40073536240F20023C0F20013936290
:1056A00040F20033C0F2E003C2F8003111F47F0F82
:1056B000E4D1DDE7D0F8002401F0030322F0030277
:1056C000C0F80024D0F80024012942EA0302C0F8FF
:1056D000002409D002291CBF0120704741F27071DB
:1056E000C0F80414002070474BF68031C0F8041451
:1056F0000020704700EB4110D0F80815D0F80C05D9
:1057000008407047416980690840704710B59308A8
:1057100002F0030E2CD05A1E032A03F0030C0FD301
:1057200023F003034FF480528458043B0C608458E8
:105730004C6084588C608458CC6001F11001F3D126
:10574000BCF1000F14D04FF4805284580B46BCF1CA
:10575000010F43F8044B05D11946BEF1000F0AD1E1
:105760001EE000BF8258BCF1020F4A601AD1083116
:10577000BEF1000F14D04FF4805280580A46BEF19B
:10578000010F02F8010B04BF104610BD020ABEF162
:10579000020F4A7004BF881C10BD000C88700331D2
:1057A000084610BD4FF4805282588A600C31BEF119
:1057B000000FE0D1F4E7000010B582B004460020ED
:1057C0000190D4F840040190019820F02E0001903F
:1057D000019840F48070C4F840046420FBF73EFA5E
:1057E000019820F48070C4F840040A20FBF736FAD0
:1057F000002002B010BD0000B0B50446C06800290A
:1058000020F0C040E06000F09980012940F0B080B5
:10581000E0680A2540F00050E0600A20FBF71EFA1D
:1058200054F8140FC00740F09C800A20FBF716FACA
:105830002068C00740F09E800A20FBF70FFA20681E
:10584000C00740F0A5800A20FBF708FA2068C007CF
:1058500040F0AC800A20FBF701FA2068C00740F056
:10586000B3800A20FBF7FAF92068C00740F0BA803D
:105870000A20FBF7F3F92068C00740F0C1800A2036
:10588000FBF7ECF92068C00740F0C8800A20FBF75E
:10589000E5F92068C00740F0CF800A20FBF7DEF969
:1058A0002068C00740F0D6800A20FBF7D7F92068AF
:1058B000C00740F0DD800A20FBF7D0F92068C00760
:1058C00040F0E4800A20FBF7C9F92068C00740F0E7
:1058D000EB800A20FBF7C2F92068C00740F0F28095
:1058E0000A20FBF7BBF92068C00740F0F9800A20C6
:1058F000FBF7B4F92068C00740F000810A20FBF7ED
:10590000ADF92068C00740F007810A20FBF7A6F92F
:105910002068C00740F00E810A20FBF79FF920683D
:10592000C00740F016810A20FBF798F92068C825C7
:10593000A5F1C800B0FA80F04009B0BDE0680A25C2
:1059400040F08040E0600A20FBF788F954F8140F1B
:10595000C00706D00A20FBF781F92068C00711D1E3
:105960001425A5F1C800B0FA80F04009B0BD00BF11
:105970000120B0BD1425A5F1C800B0FA80F040099F
:10598000B0BD00BF0A20FBF769F92068C00707D146
:105990001E25A5F1C800B0FA80F04009B0BD00BFD7
:1059A0000A20FBF75BF92068C00707D12825A5F17D
:1059B000C800B0FA80F04009B0BD00BF0A20FBF774
:1059C0004DF92068C00707D13225A5F1C800B0FA0B
:1059D00080F04009B0BD00BF0A20FBF73FF9206806
:1059E000C00707D13C25A5F1C800B0FA80F04009F6
:1059F000B0BD00BF0A20FBF731F92068C00707D10E
:105A00004625A5F1C800B0FA80F04009B0BD00BF3E
:105A10000A20FBF723F92068C00707D15025A5F11C
:105A2000C800B0FA80F04009B0BD00BF0A20FBF703
:105A300015F92068C00707D15A25A5F1C800B0FAAA
:105A400080F04009B0BD00BF0A20FBF707F92068CD
:105A5000C00707D16425A5F1C800B0FA80F040095D
:105A6000B0BD00BF0A20FBF7F9F82068C00707D1D6
:105A70006E25A5F1C800B0FA80F04009B0BD00BFA6
:105A80000A20FBF7EBF82068C00707D17825A5F1BD
:105A9000C800B0FA80F04009B0BD00BF0A20FBF793
:105AA000DDF82068C00707D18225A5F1C800B0FA4B
:105AB00080F04009B0BD00BF0A20FBF7CFF8206896
:105AC000C00707D18C25A5F1C800B0FA80F04009C5
:105AD000B0BD00BF0A20FBF7C1F82068C00707D19E
